:020000040002F8
:10600000404F0020156302001D6302001F63020061
:1060100021630200236302002563020000000000E8
:1060200000000000000000000000000027630200E4
:1060300029630200000000002B6302002D630200B0
:10604000B56502002F6302004D6B02002F63020052
:106050002F6302002F630200ED630200316602002D
:106060002F6302002F630200FD6A02002F6302000B
:106070002F6302002F6302002F6302002F630200D0
:106080002F6302000D6602002F6302002F630200DF
:10609000D96702002F630200DD6702002F63020050
:1060A0002F6302002F6302002F6302002F630200A0
:1060B0002F6302002F6302000000000000000000B8
:1060C0002F6302002F6302002F6302002F63020080
:1060D0002F6302002F6302002F6302000000000004
:1060E00000000000000000000000000000000000B0
:1060F00000000000000000000000000000000000A0
:10610000000000000000000000000000000000008F
:10611000000000000000000000000000000000007F
:10612000000000000000000000000000000000006F
:10613000000000000000000000000000000000005F
:10614000000000000000000000000000000000004F
:10615000000000000000000000000000000000003F
:10616000000000000000000000000000000000002F
:10617000000000000000000000000000000000001F
:10618000000000000000000000000000000000000F
:1061900000000000000000000000000000000000FF
:1061A00000000000000000000000000000000000EF
:1061B00000000000000000000000000000000000DF
:1061C00000000000000000000000000000000000CF
:1061D00000000000000000000000000000000000BF
:1061E00000000000000000000000000000000000AF
:1061F000000000000000000000000000000000009F
:10620000DFF80CD000F0E0F800480047ED84020011
:10621000404F002000B583B002900091019244F2FB
:10622000010071466A4600F01FFE03B000BD000089
:1062300030B4044654E8000F0D4644E80053002BE8
:10624000F8D1156030BC704730B4044654E8000FF4
:1062500040EA010544E80053002BF7D1156030BC3B
:10626000704730B4044654E8000F00EA010544E8E2
:106270000053002BF7D1156030BC704730B4044692
:1062800054E8000F80EA010544E80053002BF7D1E1
:10629000156030BC704730B4044654E8000F00EB82
:1062A000010544E80053002BF7D1156030BC70475E
:1062B00030B4044654E8000FA0EB010544E8005355
:1062C000002BF7D1156030BC704770B404464FF016
:1062D000000054E8006F0D68AE4207BF44E8002399
:1062E000012044E800630E60002B1CBF0020F0E793
:1062F00070BC704730B4044654E8000F88422CBF8D
:10630000451A054644E80053002BF5D1156030BC12
:10631000704700000648804706480047FEE7FEE752
:10632000FEE7FEE7FEE7FEE7FEE7FEE7FEE7FEE745
:10633000E167020001620200202A04DB203A00FA31
:1063400002F1002070479140C2F1200320FA03F3CC
:106350001943904070470000004870472CB002007D
:1063600040EA01039B0703D009E008C9121F08C0D7
:10637000042AFAD203E011F8013B00F8013B521E57
:10638000F9D27047D2B201E000F8012B491EFBD2CE
:1063900070470022F6E710B513460A460446194630
:1063A000FFF7F0FF204610BD421C10F8011B00292A
:1063B000FBD1801A7047034611F8012B00F8012B1E
:1063C000002AF9D118467047064C074D06E0E068F0
:1063D00040F0010394E8070098471034AC42F6D32C
:1063E000FFF712FF3CB702005CB702002DE9F0474F
:1063F00000268AB0DFF85091B0464FF48075012432
:1064000037460696284602F0C3FD38B1D9F8040392
:10641000204203D0284602F0B1FD26432D1D640022
:106420007F1CADB2082FEDD34FF4BE74204602F0AE
:10643000AFFD48B1204602F0A1FD46F0004606AA95
:106440000121002002F086FD404D16F0FF0F15D00F
:106450000127002437420DD009EB8401D1F8100543
:10646000D1F81015C0F3042055F82420C1F30141E0
:1064700002B190477F00641C082CEBD3002E5FDA3A
:106480004FF0FF30CDF8108054E0281910F8507FFD
:1064900090F9000027F0C008401C3BD007A94046F7
:1064A00002F08BFA10B34FEA9719404601F056FB01
:1064B00055F820701FB1B9F1030F03D006E0B9F110
:1064C000030F27D104A9404602F07FFA4FF0A04104
:1064D00001EB8800D0F8000706A9C0F3014A404646
:1064E00002F06BFA18B1BAF1020F03D012E0BAF160
:1064F000030F0FD1B9F1030F08D1BAF1020F1DD06C
:106500000221404602F00AFD761CF6B217B1494658
:106510004046B847641C042CB7D3002E10D06A46FE
:106520000121002002F016FD06990098884207D04C
:1065300006900498002634460790A6E70321E0E77A
:106540000AB0BDE8F0870000006000400025002090
:1065500000F01F02012191404009800000F1E0207D
:10656000C0F88012704700F01F02012191404009DD
:10657000800000F1E020C0F80011704700F01F0219
:10658000012191404009800000F1E020C0F8001294
:1065900070474907090E002806DA00F00F0000F1E5
:1065A000E02080F8141D704700F1E02080F800140E
:1065B0007047000070B54FF48076304602F040FB23
:1065C000114CB50560B1304602F041FB0120C5F821
:1065D0000803607920B90120607121680020884794
:1065E0004FF48276304602F02BFB00280AD030466A
:1065F00002F02DFB0220C5F808032168BDE87040B9
:106600000120084770BD0000E42200200748002157
:10661000C0F84011C0F84411C0F84811C0F84C113E
:10662000C0F80011C0F8041104F006BA00100140CF
:106630002DE9FE434FF48278404603F085F84C4F35
:1066400000254C4C012600B3404603F085F894F831
:106650002E0010B194F82F10D1B18DF80050616860
:1066600001912189ADF80810E26832B1218B618374
:1066700062602181E56010B102E0257400E03E60B7
:1066800021686846884784F82F5094F82E0060B33C
:106690004FF48077384603F057F830B3384603F0AC
:1066A0005BF8628B94F82D108A420AD9A2EB0100A4
:1066B00080B260832289A2EB0000626802EB400096
:1066C00005E007D1E06828B184F82F60658303F006
:1066D00029F804E08A4202D184F82F60658340469D
:1066E00003F03AF82248001D06604FF488773846D8
:1066F00003F02AF848B1384603F02EF8257402203A
:106700008DF800002168684688474FF48A7738463C
:1067100003F01AF828B1384603F01EF82574BDE8D6
:10672000FE834FF000484FF48C7967691DE000BF8D
:10673000B7FA87F028FA00F109EB80058F43284665
:1067400003F002F888B1284603F006F8A5F58C7529
:10675000E8088DF8040045F38000401C8DF80060C7
:106760008DF80500216868468847002FE0D1D6E7FC
:10677000007000406825002000F0EEB970B50E46AC
:10678000144900EB400001EBC0051446E86A1835D7
:1067900020B101280FD0022805D113E0284600F0CF
:1067A0000FFAA04201D2002411E0224631462846C9
:1067B00000F03EFA0BE0284600F002FAA042F4D2C4
:1067C0000446F2E73146284600F005FA0446204622
:1067D00070BD0000B82C002004F07CB803F072B942
:1067E000F0B5B5480023021D0178101D01254FF0BA
:1067F000805406290BD11678360708D10678C6F3DF
:106800000316032E06D0042E04D0052E02D006292E
:1068100007D00EE0B4F82463A84FC6F304263E6008
:1068200002E01678360704D10678C6F30316032E65
:1068300002D0062904D00FE0A24FA14E7E670EE0E1
:106840001678360708D10678C6F30316032E06D04D
:10685000042E04D0052E02D0062907D00EE0D4F86D
:106860004462994FC6F342363E6002E0167836071E
:1068700004D10678C6F30316032E02D0062906D0EB
:1068800011E0924E376827F0807737600EE0167877
:10689000360708D10678C6F30316032E06D0042E59
:1068A00004D0052E02D006290AD011E04FF0804610
:1068B000C6F80C31C6F81031834E361F336002E043
:1068C0001678360704D10678C6F30316032E02D0D5
:1068D000062905D00CE07C4F032664373E600AE0B1
:1068E0001678360704D10678C6F30316032E02D0B5
:1068F00006290DD014E0764F05263E60744E78369A
:106900003560734E083633603F263F1D3E6002E01F
:106910001678360704D10678C6F30316052E02D082
:10692000062957D062E06B4E36686B4F3E60694E69
:10693000361D36683F1D3E60664E083636683F1D80
:106940003E60644E0C3636683F1D3E60614E103628
:1069500036683F1D3E605F4E143636683F1D3E6010
:106960005C4E183636685C4F20373E60594E1C36F8
:1069700036683F1D3E60574E203636683F1D3E60EC
:10698000544E243636683F1D3E60524E28363668D7
:106990003F1D3E604F4E2C3636683F1D3E604D4ECB
:1069A000303636684C4F40373E604A4E3436366893
:1069B0003F1D3E60474E383636683F1D3E60454EAF
:1069C0003C3636683F1D3E60424E403636683F1DBD
:1069D0003E6002E01678360708D10678C6F3031643
:1069E000032E06D0042E04D0052E02D0062907D08F
:1069F00019E0D4F85812394A01F04F01116002E051
:106A0000117809070FD10078C0F30310032803D0D1
:106A1000042801D0052806D131480168C90702D0F1
:106A20006FF001010160D4F83001062808D1D4F8D4
:106A30003401062804D12B48016841F480610160CB
:106A400022487438016841F470010160BFF34F8F30
:106A5000BFF36F8F4FF01021D1F80002002803DB45
:106A6000D1F80402002822DA1F4A15601F48046882
:106A7000002CFCD01524C1F800420568002DFCD084
:106A8000C1F8044201680029FCD0136001680029A4
:106A9000FCD0BFF34F8F0D48F0380168144A01F461
:106AA000E06111430160BFF34F8F00BFFDE7124962
:106AB00010480860F0BD0000E00F00F040350140D4
:106AC0000DF0ADBA00C007403C050040FCED00E011
:106AD000105600400404001020C50040E40E0040A1
:106AE000000400403C17004004E5014000E4014080
:106AF0000400FA050090D003942300202DE9F0470C
:106B0000104E042700244FF4A0784FF4803900BFC2
:106B100008EB840509FA04F0715961B1D6F8041341
:106B2000014208D02946304603F072F80648D0E901
:106B3000002128469047641CE4B2BC42E8D3BDE87B
:106B4000F087000000A000405C250020014800689C
:106B500000470000EC22002010B5124C02202061FA
:106B6000606111A0A06104F17800E0614FF4007051
:106B700020620020A06260620BA1A164E06204F5C3
:106B80001E71E1641021A065C4E91410E06509A13B
:106B9000E01DFFF710FC08A12046FFF70CFC2020A9
:106BA000A07110BDB82C00205465726D696E616CC7
:106BB000000000005254540053454747455200001E
:106BC0000269C1688A4203D88068401A104400E014
:106BD000501A401E70472DE9F047C4681746894691
:106BE00006464FF000083069A04201D9051B02E0BB
:106BF000B168201A0D1AB0686D1E001BA84200D89B
:106C00000546BD4200D33D4670682A4620444946A9
:106C1000FFF7A6FBB0687F1B2C44A844A944A04200
:106C200000D10024F460002FDDD14046BDE8F0879C
:106C30002DE9F04104468846D4E90207C51BE16806
:106C4000606816460844B54206D94146FFF788FBFE
:106C5000B819E060BDE8F0812A464146FFF780FBA5
:106C6000761B08EB050132466068FFF779FBE660AA
:106C7000F0E702E008C8121F08C1002AFAD17047E5
:106C80007047002001E001C1121F002AFBD17047AC
:106C90000121202803DA81400548014003E0402813
:106CA00002DA2038814009B1012070470020704786
:106CB000FC06FFBD30B52848A5B03C2140682490B3
:106CC0002648807C8DF892006846FFF762FB022020
:106CD0008DF8000001248DF8024006208DF8030095
:106CE0003C210FA8FFF755FB24A81D4D1490ADF8CB
:106CF0004C402A1D6846296800F068FA18B119A2AC
:106D0000E321FFF787FA164A0FA80C32A96800F0B2
:106D10005DFA18B113A2E621FFF77CFA18211EA82C
:106D2000FFF737FB00208DF88D408DF87840ADF8E7
:106D300084001F908DF88C004FF4C85008492090B3
:106D40001EAAA1F1140072DF002803D005A2F521CC
:106D5000FFF760FA25B030BDF8AC020098230020A0
:106D6000CC2200202E2E5C2E2E5C2E2E5C6D6169B6
:106D70006E2E6300074810B50121007873DF20B143
:106D8000054A4FF4B471FFF745FABDE81040002002
:106D900000F0FEBDB82200207886020070B5002405
:106DA000084D05E0686810F8340002F07DFF641CAF
:106DB00028788442F6D304484068BDE8704000F06B
:106DC000B7B90000F822002058AD020070B50024C9
:106DD000064D06E06868012110F8340002F088FFD3
:106DE000641C28788442F5D3002070BDF82200206E
:106DF000F8B515460C460646052A01D20720F8BD0F
:106E000003F072F818B903F037F80028F7D11249E7
:106E100000224E600C708D60C1E90422C1E9062297
:106E20000E4D0DE006EBC4002968009181788DF8C5
:106E3000011000780A4A694602F0ACFF0028DED152
:106E4000641EE4B2EED2BDE8F84004480021054AD1
:106E5000001D00F0EDB80000F822002058AD02003F
:106E60002D810200D97F0200FEB515460E46074669
:106E700072B602F025FB00BF02F05AF90028FBD1E0
:106E80002249234A0120891AC90800EB0144012F35
:106E900023D06FF48050381822D0B0F5405F24D052
:106EA0006FF44051C84206D12B88204619A16A6868
:106EB00002F063FA04E0204632461DA102F056FAC1
:106EC00021480068C00700D000BE2A4603B0314602
:106ED0003846BDE8F04000F079B820461BA101E03B
:106EE000204622A102F03EFAEAE7A86802F086FEF8
:106EF0000346D5E90001CDE900100296204624A101
:106F0000AA6802F042FA20462BA1EBE7BCB70200C8
:106F10006CB70200415353455254494F4E204641ED
:106F2000494C45442061742025733A2575000000C2
:106F3000554E4B4E4F574E204641554C5420617490
:106F40002030782530385800F0ED00E0534F46549B
:106F50004445564943453A20415353455254494FBD
:106F60004E204641494C454400000000534F4654D2
:106F70004445564943453A20494E56414C494420E0
:106F80004D454D4F52592041434345535300000056
:106F90004552524F52202575205B25735D20617448
:106FA0002025733A25750D0A50432061743A20302C
:106FB0007825303878000000456E64206F662065C3
:106FC00072726F72207265706F72740008B501235F
:106FD0008DF800309DF80030144B186059609A60AD
:106FE0006FF48041401807D001280FD1DA60D868CB
:106FF00000889861D86807E01A611869806858614C
:1070000018690068986118694068D86118685868FC
:107010009868D868186958699869D86972B600BFC5
:107020009DF800000028FBD162B608BDB8250020FD
:10703000074B9B7823B12AB120B10068037C1BB1B8
:107040000820704707207047417442610020704754
:10705000D825002070B503F045FA104800240B2114
:10706000047044700E4D817014206C602C706C7034
:10707000FFF76EFA06211420FFF78BFA1420FFF7B2
:1070800072FA0848046006211120FFF782FA0548C9
:10709000001F0068A860002070BD0000D8250020F7
:1070A00018230020081501402DE9FC47DFF87890EF
:1070B00099F8023073B368B3052902D20720BDE8FE
:1070C000FC87436933B3437C012B25D0002704465A
:1070D0000025884616468DF80050684600F038F8BE
:1070E00001A803F089FDC8B1012101700F49446076
:1070F0000968C0E90218C0E904769DF8040089F81F
:1071000001009DF8000000F047F81420FFF736FA60
:107110002846D4E70820D2E70F46D8E704259DF893
:10712000000000F039F8F3E7D825002004150140ED
:107130000649897839B130B1416921B10021017422
:10714000022103F055BC082070470000D82500201C
:1071500030B5EFF3108172B60D4A9468012324B163
:107160000370002900D162B630BD93604FF0E02378
:10717000D3F88051074C25401560C3F88041D3F8FF
:10718000844154605A17C3F8842100220270E8E752
:10719000E4260020FC06FFBD0B498A68002A11D0B6
:1071A00000280FD1EFF3108072B60B684FF0E02289
:1071B000C2F800314B68C2F8043100228A6000280E
:1071C00000D162B670470000E42600202DE9FC479C
:1071D000002517880646158090F82D00144689462C
:1071E00030B13A462146484600F0E6F8051E09D17E
:1071F000B0784FF00C0A18B32088C846001DB8427A
:1072000002D95046BDE8FC87684679DF0028F9D1ED
:107210002088032108F8001020881921401C80B222
:10722000208008F800102088401C80B2208000EBED
:107230000801BDF8000003F039FC218808442080D3
:10724000F0780222C8B1218896F9033001F1030CCD
:107250004846BC45D5D8425421884FF0010C491C02
:1072600089B2218000F801C02188491C89B221809F
:1072700009F801302088401C20807068B8B121884E
:1072800090F9003001F1030C4846BC45B9D842548E
:1072900021880A22491C89B2218042542188491C34
:1072A00089B2218009F801302088401C2080308973
:1072B00050B1CDE900474B460622022106F10800F5
:1072C00003F0B2FC051E9DD1308A50B1CDE90047D4
:1072D0004B460722032106F1100003F0A5FC051E12
:1072E00090D1308B50B1CDE900474B461522142187
:1072F00006F1180003F098FC051E83D1306A30B106
:107300003B462246494600F090FD051EDBD1706ADF
:1073100030B13B462246494601F0D8F9051ED2D18C
:1073200096F82C0038B13B4622464946304603F0D9
:10733000A7F9051EC7D1307838B13B4622464946E9
:10734000304601F04DFA051EBDD128465AE700002F
:1073500070B5040012D001461C221448FFF700F853
:107360001248134D0560206850B17ADF002806D11D
:107370002068016829604068686005E00E2070BDE3
:107380000B487BDF0028FAD108484FF6FF7114380C
:10739000084A20F8041B0549343901600021FFF731
:1073A00047FE0028EBD0032070BD000058240020C9
:1073B000DC2200206DAB02007CB5054608880C4637
:1073C0000930904201D90C207CBD68466DDF002851
:1073D000FAD121880820685420881B21401C80B2E3
:1073E000208029542088401C80B220802844DDF869
:1073F00001100160BDF8051081802088801D80B2D9
:1074000020809DF80010490800D0012129542088CF
:10741000401C208000207CBDF8B5464C0188002728
:10742000B4F804C00546212964D01CDC4248434A14
:107430004FF00106A0EB02004FEAD0004FF003022C
:1074400002EB0040102920D011293CD013295CD137
:1074500000231A46852160467FDF002855D038A2D8
:107460004FF4CC710DE03B295BD052294ED0562908
:107470004BD18088132176DF002846D030A240F21D
:10748000BB11BDE8F840FEF7C5BE31A101F06AFFAF
:107490006670A670012000F07BFA002000F070FA00
:1074A000A988A1802D4801F053FB20B124A24FF4FC
:1074B000C171FEF7AFFEFFF789FC002825D020A29E
:1074C0004FF4C271DDE726A101F04CFF6770A67092
:1074D000012000F055FA4FF6FF70A080FFF75EFC28
:1074E00020B117A24FF4C771FEF794FEBDE8F84033
:1074F000FFF740BC0097808869468FDF002804D0E2
:107500000FA24FF4D271FEF785FEF8BD00231A4694
:1075100019466046B1DF0028F7D009A240F2AB114E
:10752000AFE78088132176DF0028EED004A240F276
:10753000B311A6E7B8220020BCB702006CB7020066
:107540002E2E5C2E2E5C2E2E5C6D61696E2E6300DD
:10755000436F6E6E6563746564000000C423002091
:10756000446973636F6E6E65637465640000000048
:107570002DE9F04701883B4E40F2F3194FF6FF75B5
:1075800010291BD011293ED0122954D0502946D1A0
:10759000C188F289841D914241D1618902293ED17D
:1075A0008688304600F004FE050038D004F10C0057
:1075B00000F095F9A8B3294630464EE0C17B878894
:1075C000044601292BD1A846284600F0F1FD05000C
:1075D00017D02F8000202872234843464A4601686E
:1075E000C5F80A104068C5F80E0004F1100105F155
:1075F0000A0000F054FE6872F08900280FD1294675
:107600002AE0042013E0808800F0D2FD040006D0B8
:107610006068FFF78DFD08B103F002F82580BDE832
:10762000F087FFE76868FFF783FD0028F7D0BDE823
:10763000F04702F0F5BF87880646384600F0B8FDEF
:107640000400ECD02B464A4606F1080104F10A007A
:1076500000F025FE607221463846BDE8F04700F094
:1076600037BC000058240020DC2200202DE9F04F18
:107670000746858802883E48012197B08346102A34
:1076800009D0112A4BD01A2A6ED1387AB1EB101FCB
:1076900047D2012246E0364C083CA068C0430B901C
:1076A00061680BA801F01BF90B990CA800F09EFB78
:1076B0002C220CA96846FEF753FE0026E946A04698
:1076C00010E000BF09EB46005FF00004B0F804A032
:1076D00008EB84005146001D01F0D5F8641C1D2CF8
:1076E000F6D3761C0098B042ECD8142D07D317B00F
:1076F000E321BDE8F04F1FA20420FEF78BBD294611
:10770000584601F0D6F8294608F1040001F0D1F8F6
:10771000F87B012828D016482946001D15E0294687
:107720001AE000220221B1EB101F01D2012600E075
:1077300000260F49083901F11000041D294682B1C5
:1077400001F0B7F836B12946204617B0BDE8F04F32
:1077500001F0AFB82946204617B0BDE8F04F01F060
:1077600092B801F090F8F5E717B0BDE8F08F00008F
:107770007C2400202E2E5C2E2E5C2E2E5C2E2E5C69
:107780002E2E5C2E2E5C636F6D706F6E656E747343
:107790005C626C655C636F6D6D6F6E5C626C655F87
:1077A000636F6E6E5F73746174652E63000000001A
:1077B00030B58DB004462F4B086860610FCB08AD23
:1077C00085E80F0004F1120108A862DF00284FD1FC
:1077D000A07C8DF8320041F22350ADF830002246F3
:1077E0000CA90120A8DF002842D120216846FEF71D
:1077F000D0FD41F22450ADF80000A07C01258DF8A9
:107800000200ADF806501420ADF804008DF80C50BD
:107810009DF80D008DF8115040F012008DF80D000C
:107820008DF81350208804F10A02694600F09EF991
:1078300000281DD120216846FEF7ABFD41F22550FE
:10784000ADF80000A07C8DF802009DF80D00ADF8A9
:10785000065040F00A008DF81150ADF804508DF834
:107860000D008DF812502088A21C694600F07EF9A8
:107870000DB030BD3CAD020030B40288502A10D1AA
:10788000034630F8062F4C88A2420AD14289012AC9
:1078900007D14C69002C04D0027B9888A44630BCE8
:1078A000604730BC704786B01423ADF81030A0F5A7
:1078B0007F43FF3B11D00023009301930293039376
:1078C00001238DF802304989ADF8001004A9CDE9F3
:1078D00002126946AEDF06B070470820FBE7007869
:1078E00000F001007047000008B502F0B1F820B1C7
:1078F0000D4A40F2CD11FEF78DFC00200090694644
:10790000012001F03DFF20B1074A40F2D311FEF7FC
:1079100081FC684601F0B4FF002804D0024A40F21E
:10792000D711FEF777FC08BD788602002DE9FC41EF
:107930000646C0074FF000050ED0104F002401226C
:10794000385D009500231146019501F0C3FA641CCF
:10795000042CF4D300F024F8B0070DD5074E002412
:10796000361D0022305D032300951146019501F07C
:10797000B1FA641C042CF4D3BDE8FC8119AD0200FB
:107980000249085C012101F0DABA000019AD0200D9
:107990000249085C002101F0D2BA000019AD0200D2
:1079A00010B500242046FFF7EBFF641C042CF9D32C
:1079B00010BD00002DE9F8430546861C00208DF817
:1079C000000090460F464FF001096846FFF7C0FBE4
:1079D0001B4C20683860D4E90001401AA16804F209
:1079E0001C47081A0EE00121384600F072FF00F033
:1079F0002FFD0146384600F06CFFD4E90001401A23
:107A0000A168081A401C8642EDD8B8F1000F03D0D7
:107A1000052065F3891002E0062065F39F50A268F7
:107A20002168114004EB8101C86020683044206067
:107A30009DF80000FFF7B0FB4846BDE8F883000062
:107A40009428002030B482680468531C8360A154D9
:107A5000D0E901128A4202D330BC01F042B930BCF5
:107A600070470000034803C8814201D101207047DC
:107A7000002070479428002010B50D2803D011A2D3
:107A800040F2F51119E013481349401AC0080321C8
:107A900001EB004011A101F065FC002C11D0A4F510
:107AA000405002380DD0082C0BD043F201408442E4
:107AB00007D0204603A24FF4F871BDE81040FEF74E
:107AC000A9BB10BD2E2E5C2E2E5C2E2E5C6D616926
:107AD0006E2E6300BCB702006CB7020053656E6483
:107AE00020627574746F6E207374617465206368AE
:107AF000616E67652E00000005494FF0FF320828CF
:107B000041F8202002D3084480F848207047000044
:107B100000250020F0B54FF0FF3512B100230826F4
:107B200001E008230C260C4C05E000BF54F823703C
:107B30007F1C04D05B1CB342F8D32846F0BD261846
:107B40005DB286F8305044F82310002AF5D1E118D0
:107B500081F84800F1E700000025002002490844B0
:107B600090F9300070470000002500202DE9F04317
:107B70008146887891B090460C4600B901208DF876
:107B80003E002088ADF83C0000250095607C6946E9
:107B900002F0BAFD6E46A07C711C02F0B5FDE07BE0
:107BA00000289DF8020002D040F0080001E020F01B
:107BB00008008DF80200217C11B140F0100001E0B6
:107BC00020F010008DF80200217B11B140F001007F
:107BD00001E020F001008DF80200217D09B10221B1
:107BE00000E0012161F342008DF802001C2102A88F
:107BF000FEF7CFFB607BC10601D4800617D50E953A
:107C00000EAFE07C791C02F07FFD9DF838000797ED
:107C100020F00F00401C20F0F00010308DF83800EC
:107C20009DF83A0020F00600801C8DF83A00607B39
:107C30008DF80800A07B8DF80900142109A8FEF733
:107C4000A8FB0FA8CDE90906A088ADF83000A06810
:107C500020B1E088ADF82C00A0680D90A06998B321
:107C600001950088ADF81000A06901AD01A9408818
:107C7000ADF81200A069406806950390A069007BEA
:107C800002F042FDA069691C407B02F03DFDA06945
:107C9000807A00289DF8060002D040F0080001E03C
:107CA00020F008008DF80600A169C97A11B140F0F2
:107CB000100001E020F010008DF80600A169097A9B
:107CC00019B140F0010002E00DE020F001008DF854
:107CD0000600A169897B09B1022100E0012161F35D
:107CE00042008DF80600E06900B10590434609AAFC
:107CF00002A94846AADF11B0BDE8F08370B5084C70
:107D0000050009D010342168002907D008682060D8
:107D1000496828468847F6E70834F4E770BD000054
:107D2000EC240020054A012120B1012805D19170E1
:107D3000FFF7E4BF51700020FAE77047EC24002001
:107D40002DE9F05F26484168F1B3DFF898B00E687E
:107D50008146DBF8004087688078E11B21F07F4591
:107D6000ED1CB0B9DFF880804FF48030C8F84403D0
:107D7000C8F804031120FEF7EBFB1120FEF7F3FB1C
:107D80004FF0010AC8F800A02F2001F085FF89F804
:107D900002A0B54200D23546124BE8193C3320F020
:107DA0007F401860DBF800105A46091B21F07F4124
:107DB000001B20F07F40C91C81420FD91068186059
:107DC0002F2001F069FF00E004E0BDE8F05F112022
:107DD000FEF7D4BBBDE8F05F02F084BBBDE8F09FC6
:107DE00018230020041501400010014073B58CB029
:107DF0000646002000900D9880B100246D46214673
:107E00000DA800F04BFD30B1009805EB40008480D8
:107E10000098401C0090641C142CF0D32C2269465E
:107E20003046FEF79DFA0EB070BD2DE9F04117887F
:107E30000646B81D14460D46984202D90C20BDE8EE
:107E4000F0813188072206290AD34FF4486C4FF697
:107E5000FF73614501D9994202D17088062801D289
:107E60001046ECE7604501D99842F9D1994203D018
:107E7000984201D08142F3D80520E855208812218C
:107E8000401C80B2208029542088401C80B2208071
:107E90004119308802F00AFE2188084480B220800F
:107EA0004119708802F002FE2188084420800020D9
:107EB000C5E7000002A24FF4A471FEF7ABB90000C1
:107EC0002E2E5C2E2E5C2E2E5C6D61696E2E630054
:107ED00038B54A7A0F4B62B100220A7259690029FB
:107EE00006D001228DF80020ADF8020068468847D0
:107EF00038BD0A7A62B19B684C6802461946204632
:107F0000FFF7D2F80028F3D0BDE8384002F088BB74
:107F10005B68F1E75824002070B588B00646002061
:107F200005900690ADF81410ADF81610019002906F
:107F300001AA05A9304690DF050021D001F05EFEC0
:107F40000346114811493246401AC108012000EB8E
:107F5000014004460E4901F010FABDF8042012B9A0
:107F6000BDF8060028B1BDF80630204609A101F091
:107F700004FABDF808201AB12046164901F0F6F9B6
:107F800008B0284670BD00006CB702006CB7020054
:107F900030B0020054686520726571756573746550
:107FA000642054582F5258207061636B6574206CA4
:107FB000656E67746820697320746F6F206C6F6ED4
:107FC000672062792025752F2575206F637465748D
:107FD000732E00007CB002002DE9F0470025DFF889
:107FE0008C803CE06068002100EBC50601203278FF
:107FF0009146FEF7A1F9D4E9062300EA020701EA57
:10800000030C57EA0C0728D082438B434846C4E947
:10801000062301F027FF3278824691460120002195
:10802000FEF78AF9D4E9042300EA020401EA03070F
:108030004A4650460021FEF77FF944404F403C43FA
:108040000BD17078012801D0012100E00021726875
:1080500081EA0A010AB1484690476D1CEDB298F8D2
:10806000000044468542BDD3BDE8F087F8220020D9
:1080700010B50021024800F03DFC80F3100010BD57
:10808000B02C00200E4910B50A784C780023A2428B
:1080900012D0521CD2B20A70022A00D10B70084AC8
:1080A0000B780C3252F8232002608868104420F0CC
:1080B0007F408860012010BD0360002010BD0000DB
:1080C000182300200EB515A19DF8080020F00F0020
:1080D000401C20F0F00010308DF80800092202A8A2
:1080E0007CDF18B1104AB521FEF794F8002000900B
:1080F00001900821ADF80400ADF800104FF4C870ED
:108100000C21ADF80600ADF8021068467ADF0028B1
:1081100003D0054ABF21FEF77DF80EBD496D704CB6
:10812000594C323232000000788602002DE9F041CD
:108130008046024601200021FEF7FEF81A4F054650
:108140000E467868FEF7F4FF00280CD1174CD4E9EE
:10815000062110462A4001EA06031A4305D0A84327
:10816000B143C4E90601BDE8F081404601F07AFE62
:1081700030B1D4E9040128433143C4E9040105E0E6
:10818000D4E90410A943B043C4E90410D4E90601BA
:1081900028433143C4E90601A1687868BDE8F0418D
:1081A0000022FEF781BF000058AD0200F822002037
:1081B0000146034802888A4200D000207047000030
:1081C000442400202DE9FC5F0E008346DDE90C47C6
:1081D000C6F1000098469246814600D40846012523
:1081E00003E000BF90FBFAF06D1C5045FADAA84599
:1081F00000D9454624B1002E01DB780700D5641E66
:10820000B80702D5B8F1000F0AD0F80708D13CB181
:10821000A54205D220215846641EFFF713FCF6E75D
:10822000002E02DA4E462D2102E0780703D52B21DD
:108230005846FFF707FC07F0030002280BD1B8F1FE
:10824000000F08D13CB1A54205D230215846641E2A
:10825000FFF7F8FBF6E7CDE90047434652463146C3
:10826000584602F029FCBDE8FC9F02460020126837
:10827000530713D502F00300012802D002280CD1C5
:1082800005E0C2F383100B68801C184404E002234D
:10829000086803EB92521044086001207047F0B563
:1082A0008488A518944200D82246A41AC288D618F9
:1082B0009A4200D81346D21A4B880788BB420CD387
:1082C0004088834209D88888A04206D3A84204D8AF
:1082D000C888904201D3B04201D90020F0BD0120EE
:1082E000F0BD00000B480C4910B5401AC00803212E
:1082F00001EB00444FF0020022B1FFF749FB20469A
:1083000006A103E0FFF73CFB204609A1BDE81040B1
:1083100001F028B8BCB702006CB702005265636573
:1083200069766564204C4544204F4E2100000000D2
:108330005265636569766564204C4544204F464626
:10834000210000001721018041800021017141714D
:108350001B218171C17170472DE9F047394E00270B
:1083600080463D46DFF8E090D6F804A057E003D001
:108370000446D0F81C8035E099F8002002EB420159
:10838000521CD2B289F8002009EBC10199F80230E1
:10839000091D9A4201D189F8005048680A780446BC
:1083A000012A12D0022A02D0032A3BD108E002F0AF
:1083B000EFFA00B10127257434E00574C06900E0CC
:1083C00070680028F9D170602CE0207C50BB886870
:1083D0006060C868A0600869E0604869A061F078E2
:1083E00000B165606268B168184B501A20F07F4098
:1083F000984202D2A168084406E0881AA16820F0D9
:108400007F40814202D9081A206000E02560656043
:108410000120A56020742046E56102F09BFAB8F1C6
:108420000000A4D199F8001099F801008142A3D16D
:1084300017B97168514502D00120BDE8F0870020CE
:10844000FBE7000018230020D8250020FFFF7F0055
:108450002DE9FF410026234800F038FA2148001F8B
:10846000074600F033FA204C60680090A56800E0F1
:1084700000986946284004EB80000C30FFF7F5FEB9
:108480000028F5D101AA009901EA050304EB830352
:10849000491CDB6842F82030401C00910228F2D3CE
:1084A000019800F0030001280BD0022810D1019898
:1084B000032101EB90500099BDF80A6001EB900098
:1084C00005E00198BDF80A60C0F3831008440090ED
:1084D000384600F0F8F908B10098606004B0304602
:1084E000BDE8F081AC2C00209428002088B04FF427
:1084F0000041002000F0AEFF20B15FA240F20D214C
:10850000FDF788FE00F006FE0120FFF70FFAFEF7E8
:10851000A1FD18B158A2A221FDF77CFE40F26662CF
:1085200001215948FEF764FC20B153A240F2072113
:10853000FDF770FE01F0A4F820B14FA24FF40671D0
:10854000FDF768FEFFF7D0F9FFF7BCFD00214F48AB
:1085500000F045FA18B148A2C721FDF75BFE4C4870
:1085600003254FF0A046C0F8005701F0DBFF494952
:10857000494AD1E90401CDE9000146488DF802508D
:108580006946083001F008FE20B13BA24FF41C718F
:10859000FDF740FE41480024CDE900403B4801A9D9
:1085A000143000F0E0FA20B133A240F22311FDF7BD
:1085B00031FE3B480090354869461838FFF7F8F817
:1085C00020B12DA240F22911FDF724FEFEF772FB27
:1085D0001C216846FDF7DDFE4FF42030CDE9004058
:1085E0004FF4702002902F4805902F488DF80C50C2
:1085F0000690ADF80E408DF810406846FEF7A8FED4
:1086000020B11DA24FF4AF71FDF704FE27482849A1
:10861000401AC00805EB004026A100F0A3FEFEF7BB
:10862000A9FB194D01270C3D6978A878014216D0A5
:108630004020C6F80805174808300068D0F8100533
:108640004FF4FA42C2401348042302210830009735
:1086500001F08CFD0F48083001F07AFD08E08843F6
:1086600007D04020C6F80C050A48083001F062FD2A
:10867000AC7001F019F8D7E72E2E5C2E2E5C2E2E52
:108680005C6D61696E2E6300C4220020B02300205F
:1086900018000050F8AC0200C9A80200ED960200D4
:1086A000E582020059A20200B57E0200BCB70200BA
:1086B0006CB70200454347206578616D706C65209A
:1086C000737461727465642E0000000070B5144606
:1086D00082880E4605462088111D0144921C99424D
:1086E00001D8FE2A01D90C2070BD521C32542088BA
:1086F000FF21401C80B2208031542088401C80B271
:1087000020808119288802F0D1F92188084480B29C
:108710002080AA8842B1A96841B13044FDF720FE0B
:108720002088A98808442080002070BD072070BDE3
:108730002DE9F047C5881E1DB6FBF5F78946B6FB47
:10874000F5F1044605FB176C407916686843DDF8BF
:1087500020A0F718001F874200D9C61A166001E052
:108760002468491E0029FBD1A5EB0C078846B742B7
:1087700016D818E004EB0C00001D09EB0803BAF151
:10878000000F3A4602D00146184600E01946FDF7B0
:10879000E7FD2468F61B4FF0000CB844B54201D940
:1087A000374600E02F46002EE4D1BDE8F0870000F8
:1087B00030B5024651B100F06BFE0021074C08E0D5
:1087C00034F821301568AB4202D11160002030BD71
:1087D000491C8142F4D3052030BD00000000000098
:1087E000F8B50F46017814460546012901D168788D
:1087F00030B12088821C9A4232D8012902D006E08A
:108800000720F8BD69780144891C994228D8181AB4
:10881000801E86B2ADF800602188B81C0844694605
:108820007DDF0028EDD12978022904D06878BDF8D1
:108830000020904205D3BDF80000B04201D80920C5
:108840000AE00820012905D16978B14202D8ADF8C3
:10885000001001E0ADF80060BDF80010FE2901D95C
:108860000C20F8BD2288491CB9542188491C89B2C2
:10887000218078542088401C2080BDF800100844D6
:1088800020800020F8BD01F01F0301229A40D2434E
:10889000490900EB8100114600F021B84A0950F85F
:1088A000220001F01F0201219140084000D0012068
:1088B000704701F01F0301229A40490900EB810033
:1088C000114600F01CB8002100F00FB8012100F0A3
:1088D00016B808B56A46FDF7DEFC009808BD08B575
:1088E0006A46FDF7BEFC009808BD08B56A46FDF76C
:1088F000B8FC08BD08B56A46FDF79AFC08BD08B586
:108900006A46FDF7A1FC009808BD08B56A46FDF768
:10891000CFFC009808BD38B5044600258DF80050FE
:108920006846FEF715FC21686268086890420ED917
:10893000401E08600178238AE26801FB0325227A41
:108940002168101AC0B20A79824200D208719DF8DB
:108950000000FEF721FC284638BD38B5054600204A
:108960008DF800000C466846FEF7F2FBE868298A9D
:10897000201AB0FBF1F12A681068431C13600170E3
:108980009DF80000FEF708FC38BD10B530B1017A43
:1089900042680368891AC9B21A6006E00E2010BD49
:1089A00003681A68541C1C601170491EC9B2F7D2C2
:1089B000006800210171084610BDC20800F00703DD
:1089C0000120895C98400840704710B5C20800F04B
:1089D0000703885C01249C402043885410BD10B5D7
:1089E00060B10161172120F8021B20F8021B1B2136
:1089F00000F8021BFFF7A6FC002010BD0E2010BDE2
:108A0000F0B5858893B00C46002D39D10188002639
:108A10003F4F24293BD006DC102909D011290CD066
:108A2000232958D14FE03A290BD0552953D129E0B9
:108A30000146204601F02AFC4DE0A01DFFF782FC14
:108A400049E02246408934F8061F814200D8084692
:108A50006080172800D217206080106970B160799B
:108A600060B1D7E90001CDE90301ADF80E5060888F
:108A7000ADF81000136903A9104698476671267176
:108A800013B0F0BD0146204601F054FC23E0011D67
:108A90002C2206A8FDF764FCBDF81800BDF81C20C8
:108AA00004EBC0014A732269AAB1D7E90423CDE9D6
:108AB0000423ADF81200487B8DF81400226920468B
:108AC00004A9904707E0017A207B884200D2014642
:108AD0002846FFF721FAA07A0028D1D0E18828465D
:108AE000A5DF012580B11128CAD001F087F8024620
:108AF0000848094913B0401AC00805EB0040BDE81A
:108B0000F04006A100F032BCA672E572B8E70000A2
:108B100024AD02006CB702006CB7020073645F62A0
:108B20006C655F67617474635F65786368616E67C5
:108B3000655F6D74755F7265717565737428292042
:108B400072657475726E65642025732E00000000D6
:108B500020B10278DE2A03D0082070470E2070472B
:108B600041800020704760B159B10278DE2A0AD0F6
:108B700009684160DE2101704FF6FF7141800020DD
:108B800070470E207047082070477FB505460029C2
:108B90004DD0002D4BD008780C46DE2847D1A88850
:108BA0006188884202D1204602F014F82888012802
:108BB00025D002283BD011283AD0512837D135F89A
:108BC000040F6188884232D1A978A81C02292ED1CD
:108BD000017A042903D0062901D0052927D10021D3
:108BE000009102228DF8002001914FF4C072029191
:108BF0000391ADF80420007A05280FD010E0297AFF
:108C00002046012913D1A988428891420FD1012120
:108C1000017204B0BDE8704001F0DCBFADF8041093
:108C200028886946B0DF002801D0616888477FBD89
:108C3000A88861888842FAD14FF6FF7060807FBDB6
:108C400000F180400068002800D00120704708B57E
:108C500000F18040002101600068009008BD000024
:108C600070B50B4C207808B185250FE00020A0607E
:108C700060602061E060074800F0E8FF054600F012
:108C800033FF08B900F0CAFF01202070284670BDEC
:108C9000EC240020257D020038B500258DF8005019
:108CA0006846FEF755FA074CE068401EE060E06851
:108CB00010B900F0DBFFA5709DF80000FEF76CFA1C
:108CC00038BD0000EC2400200FB408B5039900293A
:108CD00004D004AA00926A4600F00FF801B05DF8D3
:108CE00014FB10B582680446002A05D0D4E90403B9
:108CF000216898470020A06010BD2DE9FC479146EF
:108D00000C00804676D014F8011B39B125290ED00D
:108D10004046FEF797FE20780028F4D198F80C0022
:108D2000002867D04046BDE8FC47FFF7DABF0020C7
:108D3000012221782B291BD02D2902D0302908D1DE
:108D400002E040F0010001E040F00200641C002A53
:108D5000EFD100252A290ED02178A1F130020A2A6C
:108D600011D205EB850201EB4205641C303DF1E7B1
:108D700040F00400EAE7D9F800100B1DC9F80030F4
:108D80000968641C0D44217800232E290BD114F8A6
:108D9000011FA1F130020A2A05D203EB830201EB85
:108DA0004203303BF3E76C290DD068290BD06929C9
:108DB00021D00BDC252918D0582931D063290ED0B9
:108DC000642915D117E014F8011FECE7702969D068
:108DD000732932D075291BD0782909D120E0D9F820
:108DE0000000011DC9F8001001784046FEF72AFE78
:108DF000641C90E76CE0D9F800100A1DC9F8002047
:108E00000968CDE900500A224046FFF7DBF9EFE799
:108E1000D9F800100A1DC9F8002009680A2206E0E6
:108E2000D9F800100A1DC9F8002009681022CDE900
:108E30000050404601F040FEDAE7D9F80010002764
:108E40000A1DC9F800200E68C00705D112E040468F
:108E5000761C7F1CFEF7F6FD31780029F7D104E07F
:108E6000202140466D1EFEF7EDFDBD42C0D9002D0C
:108E7000F6D1BDE74EB13046FDF796FA074604E05D
:108E8000202140466D1EFEF7DDFDBD4206D9002DB6
:108E9000F6D103E04046761CFEF7D4FD3178002978
:108EA000F8D1A5E7D9F80000011DC9F80010056840
:108EB00030214046FEF7C6FD78214046FEF7C2FD50
:108EC00008200021CDE90001034610222946B0E721
:108ED000BDE8FC8770B541EA4201DDE904564FF078
:108EE000A04441EA830141EA052104EB800041EA04
:108EF0000641C0F8001770BD70B541EA4201DDE9D6
:108F000004564FF0A04441EA830141EA052104EBF5
:108F1000800041EA0641C0F8001770BD4FF0A04242
:108F200002EB8000D0F8002722F44032C0F800277E
:108F3000D0F8002742EA0141C0F80017704701222B
:108F40004FF0A043824011B1C3F808257047C3F821
:108F50000C25704718B5084B6C4601441B680093FC
:108F600006E000BF54F82030D3F81035401C08C28A
:108F70008142F7D818BD00004CAD0200034908B586
:108F80000844002101600068009008BD00600040B6
:108F900002494058012800D000207047006000407E
:108FA00030B5154A01460020D2F8104423460AE0A5
:108FB000DB681D79854205D1401C0A28F6DB4FF09D
:108FC000FF3030BD1B68002BF2D1431CF9D0CB68B9
:108FD0001871D2F8103443B1DB68CC681B68236089
:108FE000D2F81024D268116030BDC2F81014C968DC
:108FF00000220A6030BD0000942800207047FDF771
:10900000BBBB704708B5034A00924023024A00F0F8
:1090100005F808BD31A60200FC260020F0B595B089
:109020001C4615460F4608461A9E00F003FB182101
:1090300009A8FDF7AEF90E96CDE9095400230822E0
:1090400003A9384600F00BFB05980690BDF8100008
:10905000ADF81C00BDF81200ADF81E0000208DF820
:1090600021000398082600F00300012802D00228FE
:1090700018D032E003983346850AC0F3C2008DF859
:10908000200003980FA9C0F38314A200384600F013
:10909000E6FA09A8009006AB22460FA9284600F080
:1090A00025FA1AE00398840DC0F3C2008DF8200061
:1090B000082C01D2254600E0082533462A460FA990
:1090C000384600F0CCFA2E44641B09AB06AA2946A8
:1090D0000FA800F069F9002CEAD1384600F0B0FA88
:1090E00015B0F0BD0A4A012902EBC00007D00229E1
:1090F00007D0032907D0042907D000207047022099
:10910000704704207047007970474079704700002D
:109110006CB7020010B5FFF772FF04210348FFF798
:109120003FFF02490120C968487110BD5CB70200C9
:109130002DE9F04F8DB0FEF795FC18B100200DB071
:10914000BDE8F08F7E4C4FF0000BC4F818B4BFF3AD
:109150004F8F60680290A568D846284004EB8000D5
:109160000CE000BFD4F8180470B92168029881425D
:1091700001D86160E2E7284004EB80000C3002A9CE
:10918000FFF773F80028EDD1002005AA029901EA43
:10919000050304EB8303491CDB6842F82030401CC4
:1091A00002910228F2D3059800F00300022802D0B1
:1091B00001284DD0AAE005985022810D8946B2EBD6
:1091C000905F00D850210E4666F39F5005900831FD
:1091D0005C4800F0E6F9070078D000F02BFA43462F
:1091E000082205A9384600F042FA029908F1080A57
:1091F0002940681A8000001D864222D9504D0C3546
:1092000030B1C2B204EB8101301A90460C3104E057
:109210002946F2B2002590462846C6B25346384643
:1092200000F025FA0AEB080325B1324629463846F4
:1092300000F01DFA029909F1030001EB9000029081
:109240003BE004EB81015346324638460C31EFE7F0
:109250000598C0F38310062800D30620059960F313
:109260008911C1F38310801C05918100354800F0FD
:1092700098F907004AD000F0DDF94346082205A915
:10928000384600F0F4F908F1080800260FE00298CB
:10929000434600EA0501401C04EB810102900422D0
:1092A00038460C3100F0E3F908F10408761C059803
:1092B000C0F38310B042EAD847B1D4F81054D4F8C0
:1092C000180478B1384600F0BBF934E01EE0E868D5
:1092D0004079012804D12A68284639461268904707
:1092E000E8680568002DF2D1384600F0A9F98DF83C
:1092F00000B06846FDF72CFFD4F8180408B90298AE
:1093000060609DF80000FDF747FF14E0D4F81044BA
:1093100005E02168204689688847E0680468002CD9
:10932000F7D109480949401AC008022101EB004061
:1093300007A100F017F8FEF795FB80F00100FEE6AC
:1093400094280020DCB70200BCB702006CB7020012
:109350004261636B656E647320666C7573686564E7
:109360000000000000231A4601F03EBA08B50123B0
:1093700000926A4601F038FA08BD1CB5CDE9002319
:1093800002236A4601F030FA1CBD70B586B00DF1BB
:10939000280C9CE870008DE87C0005236A4601F0EB
:1093A00023FA06B070BD00002DE9F0470E46804656
:1093B0001C46924608293ED894F80C900020207351
:1093C0001946104601F042F80025B54206D218F8B9
:1093D00005201AA12046FFF777FC03E019A12046DB
:1093E000FFF772FC6D1C082DEFD317A12046FFF785
:1093F0006BFC0025B54210D218F80570FCF7ACFFE5
:109400000068C05D10F03E0F01D03A4600E02E2209
:109410000EA12046FFF758FC03E00DA12046FFF700
:1094200053FC6D1C082DE5D301222146504600F067
:10943000EFFF84F80C90BDE8F08700002025303263
:1094400078000000202020007C0000002563000040
:10945000200000000B4810B5FF2181600021016051
:109460004160C0F81814C0F8141480F8201406489D
:1094700000F0E4F8002803D1044800F045F900208A
:1094800010BD000094280020DCB70200F8AE0200F6
:1094900002480349401AC00870470000DCB70200C8
:1094A0006CB7020013B56846FFF782F908B10020D7
:1094B0001CBD0248009950F831001CBD6CB7020079
:1094C00070B509480125D0F8104480F8205407E011
:1094D000E06845712168204649688847E06804686B
:1094E000002CF5D170BD0000942800202DE9FF4725
:1094F00081460C9D00200C462F7B2873984616460B
:109500002946184600F0A2FF072E42D2DFE806F0F7
:1095100004090F161F2A360049462846FFF7D4FBD8
:1095200037E0494628462268FFF7CEFB31E0D4E910
:10953000002349462846FFF7C7FB2AE0A0680090B1
:10954000D4E9002349462846FFF7BEFB21E0D4E9D1
:109550000201CDE90001D4E9002349462846FFF77E
:10956000B3FB16E004F1080007C88DE80700D4E952
:10957000002349462846FFF7A7FB0AE004F108004C
:109580000FC88DE80F00D4E9002349462846FFF7AD
:109590009BFB00222946404600F03AFF2F73BDE8AE
:1095A000FF872DE9F041058A80462D1F4819C01C10
:1095B000B0FBF5F0C6B24046FFF7ADF9041E19D076
:1095C0000020207101206071E58000272546761E6D
:1095D000C4F800800BE04046FFF79DF960B1617967
:1095E000491C6171286005467F1CC0F80080B742A5
:1095F000F1D32046BDE8F081204600F002F80020BB
:10960000F8E72DE9F041457901466B1E002201E0A3
:109610000968521C9A42FBD30F680146002605E0F8
:1096200038460C68FFF799F92146761CAE42F7D30D
:10963000BDE8F0810121001DFFF74BB9FFF7A5B987
:1096400010B504460121001DFFF75FF910F0FF0F70
:1096500004D12046BDE81040FFF7D3BF10BD1CB5B4
:1096600001920122009201AAFFF762F81CBD1CB50D
:1096700001920022009201AAFFF75AF81CBD0000D7
:10968000064910B500204870091D0860BFF35F8FC0
:109690000349044800F06EFA002010BD2C2300207E
:1096A00090AD0200F026002008B500208DF80000E3
:1096B0006846FDF74DFDF1EE100A20F09F00E1EE47
:1096C000100ABFF35F8F08494020C1F880029DF85F
:1096D0000000FDF761FD00F007FA08B141DF08BDA9
:1096E00020BF40BF20BF08BD04E000E002A240F25E
:1096F0000111FCF78FBD00002E2E5C2E2E5C2E2E4D
:109700005C6D61696E2E63008268002191608268E1
:109710001161826851618268D1608268516080689D
:1097200001607047024A1060101D01607047000020
:109730002C760040030103481844C0F81425C0F8F3
:10974000101570470070004002494058002800D0B2
:109750000120704700700040034908B5084400220A
:1097600002600068009008BD0070004020B103490D
:1097700009680160002070470E2070477CAF02002E
:10978000FEB502460E460846FFF7F0FF002868D1F6
:10979000002400940194012706208DF80020ADF8E4
:1097A000040002948DF8027069462020326869DF57
:1097B0002C492D4A891AC908012202EB014530B112
:1097C00000F01CFA024628462849FFF7CFFD009416
:1097D0008DF801708DF80240019402948DF80340D9
:1097E00069464020326869DF30B100F007FA02466E
:1097F00028461F49FFF7BAFD00940A208DF80000A3
:109800000194029469460120326869DF30B100F0AA
:10981000F5F9024628461749FFF7A8FD4FF4B06056
:109820000090019402946946A120326869DF30B14A
:1098300000F0E4F9024628460F49FFF797FD00942F
:10984000019402948DF800406946A020326869DFD7
:1098500030B100F0D3F9024628460849FFF786FDEB
:109860000020FEBDCCB702006CB702001CB602009F
:1098700064B602007CB50200C8B5020028B502003B
:109880002DE9F0410546076860DF804619491A480E
:109890002A68081AC608BA4219D9022000EB064401
:1098A00016A12046FFF75EFD20463A461FA12B6811
:1098B000FFF763FD4FF08050D0F80C01296880025B
:1098C00000F10050421A204625A1FFF74FFDB8F1E4
:1098D00000004FF001040AD000F090F9024604EBBA
:1098E00006402AA1FFF742FD4046BDE8F0812F481F
:1098F0000470F9E7CCB702006CB70200496E7375CB
:109900006666696369656E742052414D20616C6CB6
:109910006F636174656420666F722074686520539C
:109920006F66744465766963652E00004368616EF6
:109930006765207468652052414D207374617274AC
:10994000206C6F636174696F6E2066726F6D20307A
:1099500078257820746F20307825782E000000005C
:109960004D6178696D756D2052414D2073697A653E
:1099700020666F72206170706C69636174696F6ECC
:1099800020697320307825782E00000073645F62B0
:109990006C655F656E61626C6528292072657475FF
:1099A000726E65642025732E000000009323002052
:1099B00030B5154891B00078002822D05FF034040B
:1099C000ADF8404010A903A861DF48B1052818D0C0
:1099D00011B00EA2BDE8304040F23911FCF71ABCBC
:1099E00003AD1A49684600F0C5F806E0D0E9002149
:1099F00028469047684600F0D4F802980028DFD047
:109A0000F4E711B030BD0000932300202E2E5C2E11
:109A10002E5C2E2E5C2E2E5C2E2E5C2E2E5C636F0A
:109A20006D706F6E656E74735C736F66746465766B
:109A30006963655C636F6D6D6F6E5C6E72665F739C
:109A400064685F626C652E630000000080AF0200F6
:109A50007CB5194C207808B108207CBD0120A0708D
:109A6000002000F0AFFD112819D0002000F0C2FD49
:109A700012480026006801908DF800606846FDF7E6
:109A800067FB0F4901A810DF05000AD000202070F5
:109A90009DF80000FDF780FB2DB128467CBD00201D
:109AA0007CBD0120F3E7A670667000F051FE012036
:109AB00000F0A0FDF3E700009023002014AF0200A7
:109AC000696E02000EB50749684600F053F805E0DC
:109AD000D0E900108847684600F063F80298002833
:109AE000F6D10EBD30AF020001480078704700008B
:109AF000902300201FB568464BDF40B1052816D0E3
:109B000004B00BA2BDE810406B21FCF783BB1849E1
:109B100001A800F02FF806E0D0E900210098904756
:109B200001A800F03EF803980028E4D0F4E71FBD38
:109B30002E2E5C2E2E5C2E2E5C2E2E5C2E2E5C2E5F
:109B40002E5C636F6D706F6E656E74735C736F66A1
:109B5000746465766963655C636F6D6D6F6E5C6E72
:109B600072665F7364685F736F632E63000000004A
:109B70009CAF0200016009684160AFF3008010B53E
:109B8000D0E900215368994201D1002104E0D1E9D4
:109B90000034A34202D01946816010BD08314160F3
:109BA000F0E7816800290BD0026892680A4482605D
:109BB00041684B689A4203D108314160FFF7DFBF2B
:109BC000704700000C4A10B502F594730EE0991A24
:109BD000C91001EBD171491002EBC1010C6884423C
:109BE00001D90B4602E005D201F108029A42EED3F8
:109BF000002010BD486810BDB0AD020000B5FFF7F1
:109C0000E1FF002800D1014800BD00009CAD02002A
:109C100008B5002242504058009008BD094800682D
:109C2000012110F0010F08D14FF0E020C02280F890
:109C30000024C0F88012C0F8001103490120086018
:109C40007047000000E100E01805004006490246A8
:109C500000200B790BB1852070470A6001220A7140
:109C600000224A7170470000E422002004490120CC
:109C7000086004480168C1F300410029FAD1704727
:109C80000C00004018040040002802D00149800167
:109C90000847704751AD0200002802D001498001F9
:109CA0000847704761AD020010B5044600F098FB0C
:109CB00028B12046BDE810400021FFF72FB920460B
:109CC00000F09AFB00280FD02046FDF747FF074A17
:109CD00002EB8001D1F8103523F00103C1F81035F3
:109CE00001218140C2F8081310BD0000006000404F
:109CF0002DE9F0418846054600F072FB234E00280E
:109D000028461AD0FDF72AFF304490F84800800911
:109D1000032802D001280ED007E04FF0A040D0F871
:109D20001005E84010F0010F05D003212846BDE8DA
:109D3000F041FFF7F3B80221F8E700F05DFB0028DF
:109D400022D02846FDF70AFF04464FF4807000EB4E
:109D500084000F4F81B207EB8400D0F8102542F049
:109D60000102C0F810250846FFF708F9B8F1000F06
:109D70000AD02846FDF7F2FE56F82000002803D04E
:109D80000120A040C7F80403BDE8F08100250020B1
:109D9000006000402DE9FC41DFF8BC80044608EB80
:109DA0000400002790F930001346C0170E46401CEF
:109DB00001D008274CE0B0781946C0F34002204695
:109DC000FDF7A8FE0546401C41D0B078410719D4E4
:109DD000C0070AD04FF0A04000EB8401D1F8000783
:109DE00020F00200C1F8000707E000217378204648
:109DF00000910A460191FFF77FF817492046543138
:109E0000FEF7E3FDB078800718D51448317800EBF1
:109E10008500D0F81025124B1A40C0F810254FF4D9
:109E2000F8524FF4403302EA042203EA01410A43A4
:109E3000D0F810150A43C0F8102509E008EB05001A
:109E4000327810F8481F41EA8211017000E00427BF
:109E50003846BDE8FC81000000250020006000407D
:109E6000FFE0FCFF4FF0A041D1F81015C14011F008
:109E7000010000D00120704770B5184D95F85800CA
:109E800008B1082070BD0020411E2A18401CC0B235
:109E900082F830102028F8D300242046FDF72CFE4D
:109EA000641CE4B20C2CF8D300240D49C0206C656E
:109EB00081F8000401264020891FC1F88002C1F802
:109EC00000014FF4BE70FFF759F80649F007C1F8DA
:109ED000040385F85860204670BD0000002500206E
:109EE00006E000E000600040034890F858000028B9
:109EF00000D00120704700000025002070B50C46FE
:109F000026490A7C0AB1112070BD2279244D0AB17C
:109F1000012A01D100222A6001EB4002137F1BB904
:109F200011F82D3F5B1C0B70E1791177217A517785
:109F300021786278302301F0030103EA0212114311
:109F4000A2784FF4E06303EA02221143E2784FF46F
:109F5000805303EA0232114322794FF4E02303EAEB
:109F60000242114362794FF4801303EA0252114313
:109F7000A2791B0103EA02620A4B114303EB0012B0
:109F8000C2F81815227AE179FFF7D4FB207908B1DD
:109F9000012801D101202860002070BD6825002023
:109FA00000750040007000402DE9F0411E4C054650
:109FB00094F82C0010B10820BDE8F08144F8101B83
:109FC0001A4928780860091D68780860E878A07741
:109FD000012727770020207060776060144EE077BB
:109FE0006FF00040C6F808034FF48270FFF7B4FB2F
:109FF000B015FFF7B1FBA8780E49400181F80004C5
:10A000008020C91FC1F88002C1F800010220C6F8F3
:10A010000403A07F10B10120C6F804030348F03800
:10A0200007600020C8E7000068250020F0750040A8
:10A030000070004007E000E02DE9F0412C4D804623
:10A040000B46287C10B11120BDE8F08101242C744E
:10A05000284E0322C6F8082321461846FFF762FB64
:10A0600095F82D00012808D900270022F8B21146E2
:10A07000FFF760FB7F1C082FF7D305EB4800427FFA
:10A08000017F4046FFF756FB002734601948001D4A
:10A09000046042F210744FF482784046FFF754FB9C
:10A0A00020B90020FFF7F0FD641EF6D14FF4807058
:10A0B000FFF752FB4046FFF74FFB95F82D000128B4
:10A0C0000AD9002405EB4400427F017FE0B2FFF78C
:10A0D00031FB641C082CF5D395F82E0008B1032041
:10A0E00000E00220C6F8040338462F74ACE70000F5
:10A0F00068250020007000402DE9F04106460D461D
:10A100004FF4803400681746AC404BB14FF4A07157
:10A1100001EB8501FFF77CFD3068C0F8044301E0E6
:10A12000C0F80843306800EB8500C0F84075BDE812
:10A13000F08100000268012111610079034A00EBFF
:10A14000400002EB80000172704700005C25002097
:10A15000016801220A600079034A00EB400002EB2B
:10A1600080000221017270475C250020F0B4046871
:10A17000049E40F20115D4F800728D40AF43C4F83C
:10A1800000720468D4F800521D43C4F800523346EC
:10A19000F0BCFFF7B1BF00002DE9F04104460E46C8
:10A1A00000792C4900EB400001EB8007387A10B1B0
:10A1B0000820BDE8F0813A60706800254FF4A0786F
:10A1C000786006E008EB85012068FFF721FD6D1C33
:10A1D000EDB26079A842F5D82068F17840F30730F5
:10A1E00000284FEA411106DA00F00F0000F1E020EC
:10A1F00080F8141D03E000F1E02080F800142068CE
:10A20000012240F3073000F01F0302FA03F1400976
:10A21000800000F1E020C0F88012C0F80011206832
:10A220007178D0F8043561F30103C0F80435206873
:10A23000B178D0F8083561F30103C0F8083520681B
:10A240003178D0F8103561F30303C0F810353A7255
:10A250000020AEE75C250020007800280AD10648DF
:10A260003B21808876DF002804D004A24FF49F7140
:10A27000FBF7D0BF70470000B82200202E2E5C2EC6
:10A280002E5C2E2E5C6D61696E2E630070B58D881C
:10A29000027900EBC5042273C97BA41D012902D0F9
:10A2A000022904D101E0008800E040882080218854
:10A2B0006088814211D92846A5DF0126B0B1112856
:10A2C00016D0FFF79BFC02460B480C49401AC00809
:10A2D00006EB00400AA1FFF749F8A179E079814235
:10A2E00008D92846BDE87040FDF716BE6671F4E750
:10A2F0002671F2E770BD00006CB702006CB7020077
:10A3000073645F626C655F67617474635F657863D3
:10A3100068616E67655F6D74755F72657175657391
:10A320007428292072657475726E65642025732EF9
:10A33000000000007CB506468D88C88806EBC50481
:10A34000A41D172800D217202188814200D8084672
:10A3500060800020207121882846B5DF60B1FFF7BA
:10A360004DFC02460F481049401AC008012101EB7C
:10A3700000400EA1FEF7FAFF6079002810D1306985
:10A3800000280DD01549D1E90201CDE90001ADF851
:10A3900002506088ADF80400326969463046904743
:10A3A0007CBD00006CB702006CB7020073645F6292
:10A3B0006C655F67617474735F65786368616E670D
:10A3C000655F6D74755F7265706C792829207265A0
:10A3D0007475726E65642025732E000024AD020032
:10A3E0000449084490F93000082801DB0120704737
:10A3F00000207047002500200449084490F93000EF
:10A40000082801D201207047002070470025002055
:10A4100010B50C46017A052908D0407A38B10848B1
:10A4200008A102682046FEF74FFC00E01AB106A121
:10A430002046FEF749FC2046BDE81040FEF751BC1F
:10A440006C230020257300000D0A000038B5C38876
:10A450000D46044633B114A0009015A216A128465B
:10A46000FEF732FC217A05291CD0607A48B1A08819
:10A47000FEF738FE164951F8202016A12846FEF7AF
:10A4800023FCA0880021FFF70DF803461049207A2D
:10A49000143951F8202001B02846BDE830400EA103
:10A4A000FEF712BC38BD00001B5B306D00000000E1
:10A4B0001B5B313B33316D0025734C6F6773206438
:10A4C000726F70706564202825642925730D0A0059
:10A4D0006C230020257300003C25733E2025733A31
:10A4E0002000000070B5012670044FF0E021002527
:10A4F000C1F88001084C4010C4F84803C4F80803B0
:10A5000066602F20FFF7C8FBA660044C2F20A560D3
:10A51000FFF7C2FBA57070BD00100140182300209A
:10A52000704700000EB50D4A07CA8DE807000B48BA
:10A530000B491838FFF738FD20B10AA240F2362146
:10A54000FBF768FE69460020FFF7D8FC002804D01E
:10A5500004A240F23921FBF75DFE0EBD10AD0200F2
:10A5600021A502002E2E5C2E2E5C2E2E5C6D6169C4
:10A570006E2E630038B50021012548B101280CD0AA
:10A58000032809D1FFF74AFBBDE83840FEF784BB3A
:10A590004FF0E020C0F8805138BD8DF800106846BB
:10A5A000FCF7D6FD064C207808B9FEF759FBE068A9
:10A5B000401CE060A5709DF80000FCF7EDFD38BD83
:10A5C000EC2400203EB5044609496846FFF7D2FA5C
:10A5D00008E000BFD0E900212046904730B168462E
:10A5E000FFF7DFFA02980028F4D13EBD11203EBDEE
:10A5F00018AF02003EB5044608496846FFF7BAFAAC
:10A6000007E000BFD0E90021204690476846FFF7E9
:10A61000C8FA02980028F5D13EBD000024AF020020
:10A6200002498969002900D0084770475824002052
:10A630002DE9F0411400884618D000250E4F03265E
:10A6400008EB050122460020FCF798F80544241A7F
:10A6500040B93878002809D008494FF47A40884733
:10A66000761E05D001203870002CE9D1BDE8F081BC
:10A6700000203870FAE7000034230020F1AE020019
:10A680002DE9F0410746806A14468846C8B3002584
:10A6900031E000BFB96A05EB450001EB8006B088E8
:10A6A000801CFE2802D90C20BDE8F0812288401CC5
:10A6B00008F8020020881622401C80B2208008F88A
:10A6C00000202088401C80B2208000EB08013088E8
:10A6D00000F0ECF92188084480B22080B28842B1B1
:10A6E000B16871B14044FBF73BFE2088B188084453
:10A6F00020806D1CEDB297F82C00A842CAD800202B
:10A70000D2E7FFE70720CFE70A78062822F0FF020A
:10A710000A7010D2DFE800F0030507090B0D0020D6
:10A7200008E0112006E0212004E0312002E01220A0
:10A7300000E0222008707047002805D1034901205D
:10A7400048700020FDF7DABA70470000EC240020C2
:10A7500010B51620FCF79CFAA0B1124890F800043E
:10A760004009082811D20121814011F0EC0F0CD0D2
:10A770000D4882684FF480017AB1016841F480018C
:10A78000016010BD42F2010001E042F20200BDE8AA
:10A79000104006A2A121FBF73DBD4FF0E020C0F81C
:10A7A000001110BD16E000E0E42600202E2E5C2EE5
:10A7B0002E5C2E2E5C2E2E5C2E2E5C2E2E5C636F5D
:10A7C0006D706F6E656E74735C736F6674646576BE
:10A7D0006963655C636F6D6D6F6E5C6E72665F73EF
:10A7E00064682E63000000002DE9F84F204D92466A
:10A7F000894606469846012269461846AF68FDF725
:10A80000D9F858B3009800210446801C09E000BF25
:10A8100000EA07035AF8212005EB8303401C491C7A
:10A82000DA604145F4D34FEA164AFDF721FC4AEAC3
:10A830000041601C384005EB80003C4005EB840281
:10A84000C160D06866F3C50068F3891069F39F2082
:10A8500020F00300401C20F00400D06095F8200494
:10A8600002E000BFFEF764FC0028FBD1BDE8F88FD2
:10A870009428002038B50025ADF8005069462846D8
:10A88000FFF7DAFB0E4CA0680A280CDABDF80010BE
:10A890000C4A0B0A02F8103002EB4002401C5170C7
:10A8A000A0600A280ADBA088A0F57F41FF3904D008
:10A8B000044AA2F13801FCF7F6FFA56038BD00009C
:10A8C000B8220020D0230020B0F5A47F01D1FFF7EB
:10A8D000D1BF70472DE9F84F1D4C00256846D4E9DB
:10A8E00001A6FDF7CFFB002738B30023009A61686B
:10A8F0001CE0D1F800C00846944503D9ACEB020235
:10A900000A6015E0A2EB0C0263440760D0F80CC0AB
:10A91000C1698146BCF1000F08D006EB030828F09E
:10A920007F48C0E9018CC9F81C5005460029E0D1D8
:10A9300028466160FDF710FD03E02846FDF70CFD99
:10A9400010B15046FDF7FCF9E770BDE8F88F000044
:10A95000182300200D4B10B5596831B102680C68FE
:10A96000A24204D8A21A0A60C161586010BD0B4609
:10A9700003E00B46C969121B21B10C689442F8D35D
:10A98000A41A0C600260C161D86110BD18230020B8
:10A990002DE9F041144E77683D462C4603E0844291
:10A9A00004D02546E469002CF9D11BE0D4B1A542BE
:10A9B0000BD1F869706040B90C4901208860002112
:10A9C000B160F0702F20FFF767F92168E069E86156
:10A9D00010B10268114401607068874202D0012002
:10A9E000BDE8F0810020FBE71823002000100140A3
:10A9F0007CB5064600240D468DF800406846FCF7FD
:10AA0000A7FB01A800F0F8F870B10570094946608D
:10AA10009DF8040048709DF80000FCF7BDFB142071
:10AA2000FBF7ACFD20467CBD04249DF80000FCF73C
:10AA3000B3FBF7E7D82500202DE9F041194D6C68EC
:10AA4000002C2CD0184800270068A968B846401A86
:10AA500020F07F462068B0420CD82146361A0744C1
:10AA6000E469087C20B181F81080886949698847C9
:10AA7000002CEFD129786878814206D1401CC0B201
:10AA80006870022801D185F80180064869780C3089
:10AA900040F82170BDE8F0411420FBF76FBDBDE820
:10AAA000F081000018230020041501400870000AFE
:10AAB00048700220704700002DE9F05F8346DDE911
:10AAC0000A4A994690460D460846012703E000BF12
:10AAD000B0FBF8F07F1C4045FAD2B94500D94F468B
:10AAE0005FEACA7012D18CB15FEA8A7002D5B9F1FF
:10AAF000000F01D0202607E0302605E031465846F9
:10AB0000641EFCF79FFF0CB1A742F7D35FF001066C
:10AB1000B9F1010F02D9A9F1010903E0B5FBF6F083
:10AB2000404502D306FB08F6F2E7DFF83C9000BF91
:10AB3000B5FBF6F000FB165519F800105846FCF767
:10AB400081FFB6FBF8F6002EF2D15FEACA7009D099
:10AB5000002C07D0A74205D220215846641EFCF7DE
:10AB600071FFF5E7BDE8F09F66AD0200F8B5054658
:10AB700080B2FDF71DFB040013D0154E207A00278C
:10AB8000317B88420ED2A8B204F10A0175DF28B1E8
:10AB9000112806D0BDE8F840FFF742BD207A401CDE
:10ABA0002072F8BD2772307C38B1A8B23B2176DF25
:10ABB00018B1082801D0FFF733FD71690029F0D0E2
:10ABC0008DF80070ADF8025068468847F8BD000067
:10ABD0005824002030B40446007A00280AD0608847
:10ABE000002166DF28B1112802D0616830BC084717
:10ABF0000120207230BC70470A494A788B78521C79
:10AC0000D2B2934200D100220B78934201D10020AE
:10AC100070470270487800EB400001EBC000001D57
:10AC200070470000D82500202DE9FC411646DDE9DB
:10AC30000854CDE900541F468046022200F00CF86B
:10AC4000002807D1CDE900543B461022314640464A
:10AC500000F002F8BDE8FC812DE9FC5F0026DDE98B
:10AC60000C4B994692468E4680462788354630E002
:10AC7000D8F80400002200EB8500694600680190C6
:10AC800001A864DF002830D19DF8000050451FD195
:10AC90000EB1002100E00221228808441118594514
:10ACA00022D846B9521C90B2208009F800E02088D2
:10ACB000401C20800126218801A801EB0902694679
:10ACC00064DF002811D120889DF8001008442080FE
:10ACD0006D1CB8F80000A842CADC56B12088C01B21
:10ACE000401E80B2FF2802D90C20BDE8FC9F09F865
:10ACF00007000020F9E7000002000600231500000D
:10AD000000A0004000040000000000060000000059
:10AD1000000000000200000400111213140D0E0FB9
:10AD200010000000770A000000000000770A000011
:10AD3000000000007ADA00000000000023D1BCEA25
:10AD40005F782315DEEF12120000000000000050B3
:10AD50000338FDD87047000003000000982500204C
:10AD60000338FDD87047303132333435363738390F
:10AD7000414243444546000000000000000000003E
:10AD800000000000000000000000000000000000C3
:10AD900078AD020090AD020004000000556E6B6EAD
:10ADA0006F776E206572726F7220636F646500004A
:10ADB000000000004CB4020001000000F8B20200E4
:10ADC00002000000ECB00200030000006CB30200BF
:10ADD00004000000C0B3020005000000A0B20200A1
:10ADE000060000003CB2020007000000A8B3020009
:10ADF00008000000B4B202000900000018B302000D
:10AE00000A00000034B402000B000000D4B00200BD
:10AE10000C000000CCB202000D0000009CB4020047
:10AE20000E00000098B302000F000000D4B302002F
:10AE30001000000008B4020011000000B0B40200CD
:10AE40001200000084B402001300000020B40200CD
:10AE50008000000054B202008100000090B10200A6
:10AE60008200000050B102008300000030B10200F7
:10AE7000840000006CB102008500000078B202007E
:10AE80008600000080B30200900000001CB20200A7
:10AE90009100000010B1020092000000E0B2020038
:10AEA00000820000E8B302000182000034B3020017
:10AEB0000282000050B3020000840000ACB1020026
:10AEC0000184000058B4020002840000F4B10200C2
:10AED00003840000D0B1020005900200039002003C
:10AEE000FD8F0200000000000000000000000000D4
:10AEF0000338FDD870470000FC2700207F000000C9
:10AF00007C2800200000000000000000000000007D
:10AF1000000000000010020704AF020014AF02009E
:10AF2000080000003CAF02004CAF02000800000027
:10AF30004CAF02005CAF02000800000038B802000D
:10AF400040B80200000000000000000028B8020025
:10AF500038B802000000000000000000F0B7020056
:10AF6000F8B70200F8B7020008B8020008B80200FB
:10AF700018B8020018B8020020B80200B822002059
:10AF80005CAF02007CAF02000800000020B80200A5
:10AF900028B8020000000000000000008CAF020092
:10AFA0009CAF02000800000000404040404040408C
:10AFB000404041414141414040404040404040408C
:10AFC0004040404040404040400502020202020230
:10AFD000020202020202020202202020202020207F
:10AFE0002020200202020202020290909090909093
:10AFF0001010101010101010101010101010101051
:10B0000010101010020202020202888888888888C4
:10B0100008080808080808080808080808080808B0
:10B02000080808080202020240000000A9AF02005E
:10B0300073645F626C655F6761705F646174615FB8
:10B040006C656E6774685F7570646174652829202B
:10B05000287265717565737429206F6E20636F6E39
:10B060006E656374696F6E20307825782072657420
:10B0700075726E65642025732E000000546865208B
:10B0800072657175657374656420636F6D62696E56
:10B090006174696F6E206F6620545820616E642061
:10B0A0005258207061636B6574206C656E677468BC
:10B0B0007320697320746F6F206C6F6E67206279E4
:10B0C000202575206D6963726F7365636F6E64739D
:10B0D0002E0000004E52465F4552524F525F494E7D
:10B0E00056414C49445F4441544100004E52465F32
:10B0F0004552524F525F534F46544445564943457B
:10B100005F4E4F545F454E41424C454400000000A5
:10B110004E52465F4552524F525F4645415455523A
:10B12000455F4E4F545F454E41424C454400000040
:10B130004E52465F4552524F525F4D555445585FEF
:10B14000554E4C4F434B5F4641494C45440000002F
:10B150004E52465F4552524F525F4D555445585FCF
:10B160004C4F434B5F4641494C4544004E52465F6D
:10B170004552524F525F4D555445585F434F4E44D0
:10B180005F494E49545F4641494C45440000000028
:10B190004E52465F4552524F525F4D555445585F8F
:10B1A000494E49545F4641494C4544004E52465F22
:10B1B0004552524F525F424C455F495053505F5287
:10B1C000585F504B545F5452554E434154454400D0
:10B1D0004E52465F4552524F525F424C455F495076
:10B1E00053505F504545525F52454A45435445448C
:10B1F000000000004E52465F4552524F525F424C93
:10B20000455F495053505F4C494E4B5F444953434F
:10B210004F4E4E4543544544000000004E52465F99
:10B220004552524F525F4150495F4E4F545F494D16
:10B23000504C454D454E5445440000004E52465F2B
:10B240004552524F525F4E4F545F535550504F52DC
:10B25000544544004E52465F4552524F525F4D4F47
:10B2600044554C455F4E4F545F494E495449414CFB
:10B27000495A4544000000004E52465F4552524F25
:10B28000525F4D4F44554C455F414C5245414459E6
:10B290005F494E495449414C495A45440000000019
:10B2A0004E52465F4552524F525F4E4F545F464F8B
:10B2B000554E44004E52465F4552524F525F494EE2
:10B2C00056414C49445F5354415445004E52465FE9
:10B2D0004552524F525F444154415F53495A4500D1
:10B2E0004E52465F4552524F525F494F5F50454E56
:10B2F00044494E47000000004E52465F4552524FAF
:10B30000525F5356435F48414E444C45525F4D494E
:10B310005353494E470000004E52465F4552524F2C
:10B32000525F494E56414C49445F4C454E47544844
:10B33000000000004E52465F4552524F525F445249
:10B34000565F5457495F4552525F414E41434B004F
:10B350004E52465F4552524F525F4452565F5457C9
:10B36000495F4552525F444E41434B004E52465F47
:10B370004552524F525F494E5445524E414C000087
:10B380004E52465F4552524F525F53544F524147BF
:10B39000455F46554C4C00004E52465F4552524F59
:10B3A000525F4E554C4C00004E52465F4552524F34
:10B3B000525F494E56414C49445F504152414D0005
:10B3C0004E52465F4552524F525F4E4F5F4D454D74
:10B3D000000000004E52465F4552524F525F464FAA
:10B3E0005242494444454E004E52465F4552524FE8
:10B3F000525F4452565F5457495F4552525F4F5611
:10B40000455252554E0000004E52465F4552524F33
:10B41000525F494E56414C49445F414444520000FA
:10B420004E52465F4552524F525F5245534F55520E
:10B43000434553004E52465F4552524F525F494E6C
:10B4400056414C49445F464C414753004E52465F7B
:10B4500053554343455353004E52465F4552524F56
:10B46000525F424C455F495053505F4348414E4EF6
:10B47000454C5F414C52454144595F4558495354EE
:10B48000530000004E52465F4552524F525F434FA9
:10B490004E4E5F434F554E54000000004E52465FE3
:10B4A0004552524F525F54494D454F55540000008C
:10B4B0004E52465F4552524F525F4255535900001B
:10B4C0007761726E696E670064656275670000007F
:10B4D0001B5B313B33306D001B5B306D00000000A7
:10B4E0001B5B313B33316D001B5B313B33326D00F5
:10B4F0001B5B313B33336D001B5B313B33346D00E1
:10B500001B5B313B33356D001B5B313B33366D00CC
:10B510001B5B313B33376D00696E666F00000000C6
:10B520006572726F7200000073645F626C655F63C6
:10B5300066675F73657428292072657475726E651D
:10B5400064202573207768656E20617474656D7062
:10B5500074696E6720746F2073657420424C455F78
:10B5600047415454535F4346475F534552564943FE
:10B57000455F4348414E4745442E000073645F6277
:10B580006C655F6366675F736574282920726574F4
:10B5900075726E6564202573207768656E2061740E
:10B5A00074656D7074696E6720746F2073657420A4
:10B5B000424C455F434F4D4D4F4E5F4346475F56AC
:10B5C000535F555549442E0073645F626C655F6339
:10B5D00066675F73657428292072657475726E657D
:10B5E00064202573207768656E20617474656D70C2
:10B5F00074696E6720746F2073657420424C455FD8
:10B6000047415454535F4346475F415454525F543B
:10B6100041425F53495A452E0000000073645F6247
:10B620006C655F6366675F73657428292072657453
:10B6300075726E6564202573207768656E2061746D
:10B6400074656D7074696E6720746F207365742003
:10B65000424C455F434F4E4E5F4346475F47415024
:10B660002E00000073645F626C655F6366675F73E2
:10B67000657428292072657475726E65642025735F
:10B68000207768656E20617474656D7074696E678B
:10B6900020746F2073657420424C455F4741505FB2
:10B6A0004346475F524F4C455F434F554E542E0023
:10B6B0006E72665F626C655F6761747400000000A3
:10B6C000636C6F636B000000434C4F434B00000002
:10B6D0004750494F54450000505253005541525471
:10B6E00000000000554152544500000054494D45AA
:10B6F0005200000053414144430000007077725FE4
:10B700006D676D74000000007274745F6C6F675F2A
:10B710006261636B656E6400617070006E72665F7B
:10B72000736468006E72665F7364685F626C650064
:10B730006E72665F7364685F736F630040B8020087
:10B74000B8220020E0000000726C020020B9020064
:10B7500098230020A82B0000826C0200D8AE0200C3
:10B760000000000008B7020038230020B0B6020035
:10B7700000000303C0B6020000000000C8B60200CB
:10B7800000000000D0B6020000000000D8B60200A1
:10B7900000000000DCB6020000000000E4B6020079
:10B7A00000000000ECB6020000000000F4B6020049
:10B7B00000000000FCB602000000000018B7020004
:10B7C000000003031CB702000000030324B70200BB
:10B7D0000000030330B702000000030348230020E9
:10B7E00040230020482300203C27002018000000B0
:10B7F0006D76020000000000018A0200B0230020E4
:10B800007175020000000000797802009823002082
:10B810008B8B0200C423002019740200000000007A
:10B8200039A7020000000000B199020000000000EA
:10B83000F59A02000000000075A50200000000005B
:10B84000FF000000FFFF0000000000000D000300EB
:10B85000797A0200E42300201F0000000324002066
:10B860001F000000000000000000000000000000B9
:10B8700000000000000000000000000000000000C8
:10B8800000000000000000000000000000000000B8
:10B8900000000000000000000000000000000000A8
:10B8A0000000000000000000000000000000000098
:10B8B0000000000000000000000000000000000088
:10B8C00000000000FF000000000000000000000079
:10B8D0000000000000000000000000000000000068
:10B8E0000000000020B50200C0B4020018B502003C
:10B8F000C8B40200D8B40200D0B40200E0B4020020
:10B90000E8B40200F0B40200F8B4020000B502008E
:10B9100008B5020010B50200000000000090D0033E
:040000050002620192
:00000001FF
