:020000040002F8
:10600000B8460020F9620200016302000363020047
:10601000056302000763020009630200000000003C
:106020000000000000000000000000000B63020000
:106030000D630200000000000F6302001163020004
:10604000C165020013630200B96902001363020014
:106050001363020013630200A96302003D6602009D
:1060600013630200136302006969020013630200F4
:106070001363020013630200136302001363020040
:106080001363020019660200136302001363020027
:106090008567020013630200896702001363020030
:1060A0001363020013630200136302001363020010
:1060B00013630200136302000000000000000000F0
:1060C00013630200136302001363020013630200F0
:1060D00013630200136302001363020013630200E0
:1060E0001363020013630200136302000000000048
:1060F00000000000136302000000000013630200B0
:10610000000000000000000000000000000000008F
:10611000000000000000000000000000000000007F
:10612000000000000000000000000000000000006F
:10613000000000000000000000000000000000005F
:10614000000000000000000000000000000000004F
:10615000000000000000000000000000000000003F
:10616000000000000000000000000000000000002F
:10617000000000000000000000000000000000001F
:10618000000000000000000000000000000000000F
:1061900000000000000000000000000000000000FF
:1061A00000000000000000000000000000000000EF
:1061B00000000000000000000000000000000000DF
:1061C00000000000000000000000000000000000CF
:1061D00000000000000000000000000000000000BF
:1061E00000000000000000000000000000000000AF
:1061F000000000000000000000000000000000009F
:10620000DFF80CD000F0BEF800480047697B0200C0
:10621000B846002030B4044654E8000F0D4644E868
:106220000053002BF8D1156030BC704730B40446E1
:1062300054E8000F40EA010544E80053002BF7D171
:10624000156030BC704730B4044654E8000F00EAD3
:10625000010544E80053002BF7D1156030BC7047AE
:1062600030B4044654E8000F80EA010544E80053C6
:10627000002BF7D1156030BC704730B4044654E8A9
:10628000000F00EB010544E80053002BF7D1156027
:1062900030BC704730B4044654E8000FA0EB010551
:1062A00044E80053002BF7D1156030BC704770B440
:1062B00004464FF0000054E8006F0D68AE4207BF7F
:1062C00044E80023012044E800630E60002B1CBF5B
:1062D0000020F0E770BC704730B4044654E8000F6B
:1062E00088422CBF451A054644E80053002BF5D1DF
:1062F000156030BC704700000648804706480047DC
:10630000FEE7FEE7FEE7FEE7FEE7FEE7FEE7FEE765
:10631000FEE7FEE78D67020001620200202A04DB2F
:10632000203A00FA02F1002070479140C2F12003A8
:1063300020FA03F319439040704740EA01039B079A
:1063400003D009E008C9121F08C0042AFAD203E0EA
:1063500011F8013B00F8013B521EF9D27047D2B24E
:1063600001E000F8012B491EFBD270470022F6E73E
:1063700010B513460A4604461946FFF7F0FF2046BB
:1063800010BD0000064C074D06E0E06840F0010338
:1063900094E8070098471034AC42F6D3FFF734FF77
:1063A000D0930200F09302002DE9F04F00268DB04B
:1063B000DFF8A081B14604964FF48075012437467A
:1063C0000596284601F094FF38B1D8F8040320421E
:1063D00003D0284601F082FF26432D1D64007F1C58
:1063E000ADB2082FEDD34FF4BE74204601F080FF0C
:1063F00048B1204601F072FF46F0004604AA02218F
:10640000002001F055FF544C16F0FF0F15D0012766
:10641000002537420DD008EB8501D1F81005D1F8E1
:106420001015C0F3052054F82520C1F3014102B135
:1064300090477F006D1C082DEBD3002E7EDA0020E4
:10644000CDF82890411E0DF1100B07AACDF82C9025
:1064500042F82010401C91460228F9D300252E4610
:10646000A11911F8607F91F9000027F0C008401CC5
:1064700040D007A9404601F0FEFC40B34FEA971A0E
:10648000404601F027F854F820701FB1BAF1030F0D
:1064900003D006E0BAF1030F2CD10AA9404601F05F
:1064A000F2FC02A8CDF8088001F0D6FE029900EBBC
:1064B0008100D0F8000704A9C0F3014002904046D3
:1064C00001F0D9FC0028029802D0022802D011E085
:1064D00003280FD1BAF1030F08D10298022833D054
:1064E0000221404601F092FE6D1CEDB217B15146FB
:1064F0004046B847761C042EB2D3002D21D001AA05
:106500000221002001F0D4FE00205A460DF10401C2
:1065100052F8206051F82030B34217D000200AAE64
:106520004FEA090351F8207042F8207056F82070A5
:1065300043F82070401C0228F4D300E001E0002D55
:106540008CD10DB0BDE8F08F0321CAE7401C0228B2
:10655000DED3F6E700600040CC24002000F01F02EC
:10656000012191404009800000F1E020C0F8801234
:10657000704700F01F02012191404009800000F1A6
:10658000E020C0F80011704700F01F020121914087
:106590004009800000F1E020C0F800127047490770
:1065A000090E002806DA00F00F0000F1E02080F864
:1065B000141D704700F1E02080F8001470470000BF
:1065C00070B54FF48076304601F0AAFD114CB50548
:1065D00060B1304601F0ABFD0120C5F808036079D9
:1065E00020B9012060712168002088474FF482762D
:1065F000304601F095FD00280AD0304601F097FDA5
:106600000220C5F808032168BDE870400120084752
:1066100070BD00000C23002007480021C0F8401185
:10662000C0F84411C0F84811C0F84C11C0F800116E
:10663000C0F8041102F022BD001001402DE9FE4314
:106640004FF48278404601F0A5FE4C4F00254C4C9B
:10665000012600B3404601F0A5FE94F82E0010B1CB
:1066600094F82F10D1B18DF8005061680191218903
:10667000ADF80810E26832B1218B6183626021813C
:10668000E56010B102E0257400E03E6021686846D4
:10669000884784F82F5094F82E0060B34FF4807729
:1066A000384601F077FE30B3384601F07BFE628B4E
:1066B00094F82D108A420AD9A2EB010080B26083BF
:1066C0002289A2EB0000626802EB400005E007D1DE
:1066D000E06828B184F82F60658301F049FE04E08A
:1066E0008A4202D184F82F606583404601F05AFE49
:1066F0002248001D06604FF48877384601F04AFEB4
:1067000048B1384601F04EFE257402208DF8000095
:106710002168684688474FF48A77384601F03AFE88
:1067200028B1384601F03EFE2574BDE8FE834FF0E7
:1067300000484FF48C7967691DE000BFB7FA87F015
:1067400028FA00F109EB80058F43284601F022FE6C
:1067500088B1284601F026FEA5F58C75E8088DF86D
:10676000040045F38000401C8DF800608DF80500A2
:10677000216868468847002FE0D1D6E700700040C6
:106780003825002002F0C8BB01F0D6BE30B54FF06E
:10679000805000228300D0F83011C3F80C21C3F8D8
:1067A0001021624B1A60624B1B68624C2360604B85
:1067B0001B1D1B68241D23605D4B08331B68241DB3
:1067C00023605B4B0C331B68241D2360584B103334
:1067D0001B68241D2360564B14331B68241D236043
:1067E000534B18331B68534C20342360504B1C33DD
:1067F0001B68241D23604E4B20331B68241D23601F
:106800004B4B24331B68241D2360494B28331B68E2
:10681000241D2360464B2C331B68241D2360444BEE
:1068200030331B68434C40342360414B34331B6886
:10683000241D23603E4B38331B68241D23603C4BD2
:106840003C331B68241D2360394B40331B68241DD7
:1068500023600124082902D1D0F8343113B108296A
:1068600004D006E0354B3449196005E0D0F83431E6
:1068700013B1082904D006E0314BFB21196005E073
:10688000D0F8343113B1082908D00EE090F858320E
:106890002C48016863F30301016002E0D0F8343151
:1068A0001BB929494FF40070086028480168C907DE
:1068B00002D06FF0010101602548016841F47001C8
:1068C0000160BFF34F8FBFF36F8F4FF01021D1F8EE
:1068D0000002002803DBD1F80402002822DA1D4B55
:1068E0001C601D480468002CFCD01224C1F8004232
:1068F0000568002DFCD0C1F8044201680029FCD0D5
:106900001A6001680029FCD0BFF34F8F10487C3813
:106910000168124A01F4E06111430160BFF34F8F37
:1069200000BFFDE70F490E48086030BD3805004044
:106930000404001020C50040488103008C5600402C
:1069400018F50040E40E004040960240000400406C
:1069500088ED00E004E5014000E401400400FA0590
:106960000090D003602300202DE9F047104E04274B
:1069700000244FF4A0784FF4803900BF08EB840561
:1069800009FA04F0715961B1D6F80413014208D034
:106990002946304601F02DFE0648D0E90021284660
:1069A0009047641CE4B2BC42E8D3BDE8F087000025
:1069B00000A0004068250020014800680047000052
:1069C0001423002002E008C8121F08C1002AFAD1CF
:1069D00070477047002001E001C1121F002AFBD15F
:1069E000704700000121202803DA8140054801405A
:1069F00003E0402802DA2038814009B101207047C5
:106A000000207047FC06FFBD30B52548A5B03C21ED
:106A1000406824902348807C8DF892006846FFF7F8
:106A2000A5FC02208DF8000001248DF8024006200C
:106A30008DF803003C210FA8FFF798FC24A81A4DFD
:106A40001490ADF84C402A1D6846296800F096F96C
:106A500008B100F0B9F8144A0FA80C32A96800F088
:106A60008DF908B100F0B0F818211EA8FFF77EFCE0
:106A700000208DF88D408DF87840ADF884001F908F
:106A80008DF88C004020084920901EAAA1F1140026
:106A900072DF002801D000F097F825B030BD00006B
:106AA0008892020064230020F4220020064810B5DA
:106AB0000121007873DF08B100F086F8BDE81040CE
:106AC000002000F0B1BC0000E022002070B50024DE
:106AD000084D05E0686810F8340001F0D7FD641C2B
:106AE00028788442F6D304484068BDE8704000F03E
:106AF000F7B8000020230020F892020070B50024AF
:106B0000064D06E06868012110F8340001F0E2FD4E
:106B1000641C28788442F5D3002070BD2023002017
:106B2000F8B515460C460646052A01D20720F8BDE1
:106B300001F0C8FE18B901F08BFE0028F7D1124908
:106B400000224E600C708D60C1E90422C1E906226A
:106B50000E4D0DE006EBC4002968009181788DF898
:106B6000011000780A4A694601F000FE0028DED1D3
:106B7000641EE4B2EED2BDE8F84004480021054AA4
:106B8000001D00F02DB8000020230020F892020024
:106B9000717902009978020072B609480068C0074E
:106BA00000D000BEBFF34F8F0548E4380168054AA6
:106BB00001F4E06111430160BFF34F8F00BFFDE7B7
:106BC000F0ED00E00400FA050EB500210091CDE9DA
:106BD00001106A4644F20100FFF7DEFF0EBD00001F
:106BE000074B9B7823B12AB120B10068037C1BB10D
:106BF00008207047072070474174426100207047A9
:106C00009425002070B502F02BF8104800240B21C9
:106C1000047044700E4D817014206C602C706C7088
:106C2000FFF79CFC06211420FFF7B9FC1420FFF7A6
:106C3000A0FC0848046006211120FFF7B0FC0548BD
:106C4000001F0068A860002070BD0000942500208F
:106C500040230020081501402DE9FC47DFF878901B
:106C600099F8023073B368B3052902D20720BDE852
:106C7000FC87436933B3437C012B25D000270446AE
:106C80000025884616468DF80050684600F038F812
:106C900001A802F079FAC8B1012101700F494460DE
:106CA0000968C0E90218C0E904769DF8040089F873
:106CB00001009DF8000000F047F81420FFF764FC85
:106CC0002846D4E70820D2E70F46D8E704259DF8E8
:106CD000000000F039F8F3E7942500200415014086
:106CE0000649897839B130B1416921B10021017477
:106CF000022102F09FB9082070470000942500206F
:106D000030B5EFF3108172B60D4A9468012324B1B7
:106D10000370002900D162B630BD93604FF0E023CC
:106D2000D3F88051074C25401560C3F88041D3F853
:106D3000844154605A17C3F8842100220270E8E7A6
:106D4000A0260020FC06FFBD0B498A68002A11D04E
:106D500000280FD1EFF3108072B60B684FF0E022DD
:106D6000C2F800314B68C2F8043100228A60002862
:106D700000D162B670470000A02600202DE9FC4734
:106D8000002517880646158090F82D001446894680
:106D900030B13A462146484600F0E6F8051E09D1D2
:106DA000B0784FF00C0A18B32088C846001DB842CE
:106DB00002D95046BDE8FC87684679DF0028F9D142
:106DC0002088032108F8001020881921401C80B277
:106DD000208008F800102088401C80B2208000EB42
:106DE0000801BDF8000002F083F9218808442080E2
:106DF000F0780222C8B1218896F9033001F1030C22
:106E00004846BC45D5D8425421884FF0010C491C56
:106E100089B2218000F801C02188491C89B22180F3
:106E200009F801302088401C20807068B8B12188A2
:106E300090F9003001F1030C4846BC45B9D84254E2
:106E400021880A22491C89B2218042542188491C88
:106E500089B2218009F801302088401C20803089C7
:106E600050B1CDE900474B460622022106F1080049
:106E700002F0A2F9051E9DD1308A50B1CDE900473C
:106E80004B460722032106F1100002F095F9051E7A
:106E900090D1308B50B1CDE900474B4615221421DB
:106EA00006F1180002F088F9051E83D1306A30B16E
:106EB0003B462246494600F074FC051EDBD1706A51
:106EC00030B13B462246494600F024FF051ED2D190
:106ED00096F82C0038B13B4622464946304601F030
:106EE00057FF051EC7D1307838B13B462246494688
:106EF000304600F041FF051EBDD128465AE700008C
:106F000070B5040012D001461C221448FFF715FA90
:106F10001248134D0560206850B17ADF002806D171
:106F20002068016829604068686005E00E2070BD37
:106F30000B487BDF0028FAD108484FF6FF71143860
:106F4000084A20F8041B0549343901600021FFF785
:106F500047FE0028EBD0032070BD00002424002051
:106F600004230020FD9002007CB5054608880C46ED
:106F70000930904201D90C207CBD68466DDF0028A5
:106F8000FAD121880820685420881B21401C80B237
:106F9000208029542088401C80B220802844DDF8BD
:106FA00001100160BDF8051081802088801D80B22D
:106FB00020809DF80010490800D001212954208824
:106FC000401C208000207CBDF8B52E4C028800219A
:106FD000A6880546212A41D00DDC4FF00100102A79
:106FE00013D0112A29D0132A40D100231A46852113
:106FF00030467FDF1BE03B2A3FD0522A37D0562A4B
:1070000034D18088132176DF11E06070A0700120F8
:1070100000F00AFA002000F0FFF9A988A1801A48C0
:1070200001F006F808B1FFF7CFFDFFF767FD002874
:107030001CD0BDE8F840FFF7C7BD6170A07001200B
:1070400000F0EAF94FF6FF70A080FFF73FFD08B1AE
:10705000FFF7BAFDBDE8F840FFF728BD0091808832
:1070600069468FDF002801D0FFF7AEFDF8BD002391
:107070001A4619463046B1DFD9E78088132176DFFA
:10708000D5E70000E0220020902300202DE9F04702
:1070900001883B4E40F2F3194FF6FF7510291BD0C3
:1070A00011293ED0122954D0502946D1C188F289E5
:1070B000841D914241D1618902293ED186883046A2
:1070C00000F098FC050038D004F10C0000F075F9D0
:1070D000A8B3294630464EE0C17B87880446012983
:1070E0002BD1A846284600F085FC050017D02F803C
:1070F00000202872234843464A460168C5F80A1012
:107100004068C5F80E0004F1100105F10A0000F016
:107110007BFC6872F08900280FD129462AE0042000
:1071200013E0808800F066FC040006D06068FFF77A
:10713000D7FD08B101F024FE2580BDE8F087FFE708
:107140006868FFF7CDFD0028F7D0BDE8F04701F0F3
:1071500017BE87880646384600F04CFC0400ECD089
:107160002B464A4606F1080104F10A0000F04CFCE7
:10717000607221463846BDE8F04700F059BB000078
:1071800024240020042300202DE9F04F07468588A1
:1071900002883D48012197B08346102A09D0112A60
:1071A00049D01A2A6CD1387AB1EB101F45D201228E
:1071B00044E0354C083CA068C0430B9061680BA8C4
:1071C00000F04DFE0B990CA800F0CCFA2C220CA973
:1071D0006846FFF7B2F80026E946A04610E000BF77
:1071E00009EB46005FF00004B0F804A008EB84004F
:1071F0005146001D00F013FE641C1D2CF6D3761CB6
:107200000098B042ECD8142D05D317B00420BDE887
:10721000F04FFFF7D9BC2946584600F016FE294624
:1072200008F1040000F011FEF87B012828D0164870
:107230002946001D15E029461AE000220221B1EB83
:10724000101F01D2012600E000260F49083901F184
:107250001000041D294682B100F0F7FD36B1294621
:10726000204617B0BDE8F04F00F0EFBD294620469C
:1072700017B0BDE8F04F00F0D2BD00F0D0FDF5E74B
:1072800017B0BDE8F08F00004824002030B58DB065
:1072900004462F4B086860610FCB08AD85E80F00EE
:1072A00004F1120108A862DF00284FD1A07C8DF8FC
:1072B000320041F22350ADF8300022460CA90120E3
:1072C000A8DF002842D120216846FFF74FF841F29D
:1072D0002450ADF80000A07C01258DF80200ADF827
:1072E00006501420ADF804008DF80C509DF80D00E8
:1072F0008DF8115040F012008DF80D008DF81350EC
:10730000208804F10A02694600F0ECF800281DD13B
:1073100020216846FFF72AF841F22550ADF8000019
:10732000A07C8DF802009DF80D00ADF8065040F0ED
:107330000A008DF81150ADF804508DF80D008DF84D
:1073400012502088A21C694600F0CCF80DB030BD68
:10735000CC92020030B40288502A10D1034630F893
:10736000062F4C88A2420AD14289012A07D14C69D2
:10737000002C04D0027B9888A44630BC604730BC07
:10738000704786B01423ADF81030A0F57F43FF3B63
:1073900011D00023009301930293039301238DF8EE
:1073A00002304989ADF8001004A9CDE902126946FE
:1073B000AEDF06B070470820FBE7007800F0010060
:1073C000704700002DE9FC410646C0074FF000055C
:1073D0000ED0104F00240122385D00950023114685
:1073E000019500F0E1FE641C042CF4D300F024F8B5
:1073F000B0070DD5074E0024361D0022305D032353
:1074000000951146019500F0CFFE641C042CF4D3C6
:10741000BDE8FC81A99202000249085C012100F04C
:1074200034BF0000A99202000249085C002100F06C
:107430002CBF0000A992020010B500242046FFF7DF
:10744000EBFF641C042CF9D310BD0B280CD10029D0
:107450000CD0A1F54050023808D0082906D043F2DC
:107460000140814202D00846FFF7AEBB70470000E2
:1074700005494FF0FF32082841F8202002D3084484
:1074800080F8582070470000CC240020F0B54FF061
:10749000FF3512B10023082601E008230C260C4C0E
:1074A00005E000BF54F823707F1C04D05B1CB3427E
:1074B000F8D32846F0BD26185DB286F8305044F85F
:1074C0002310002AF5D1E11881F85800F1E70000F7
:1074D000CC2400200249084490F930007047000095
:1074E000CC2400202DE9F0438146887891B0904665
:1074F0000C4600B901208DF83E002088ADF83C0014
:1075000000250095607C694601F086FC6E46A07CF3
:10751000711C01F081FCE07B00289DF8020002D084
:1075200040F0080001E020F008008DF80200217C06
:1075300011B140F0100001E020F010008DF80200C1
:10754000217B11B140F0010001E020F001008DF835
:107550000200217D09B1022100E0012161F3420016
:107560008DF802001C2102A8FEF700FF607BC10617
:1075700001D4800617D50E950EAFE07C791C01F082
:107580004BFC9DF83800079720F00F00401C20F0BE
:10759000F00010308DF838009DF83A0020F0060019
:1075A000801C8DF83A00607B8DF80800A07B8DF878
:1075B0000900142109A8FEF7D9FE0FA8CDE9090694
:1075C000A088ADF83000A06820B1E088ADF82C00AC
:1075D000A0680D90A06998B301950088ADF81000DF
:1075E000A06901AD01A94088ADF81200A06940680A
:1075F00006950390A069007B01F00EFCA069691C50
:10760000407B01F009FCA069807A00289DF8060003
:1076100002D040F0080001E020F008008DF80600DC
:10762000A169C97A11B140F0100001E020F010000A
:107630008DF80600A169097A19B140F0010002E055
:107640000DE020F001008DF80600A169897B09B1E9
:10765000022100E0012161F342008DF80600E0699B
:1076600000B10590434609AA02A94846AADF11B015
:10767000BDE8F08370B5084C050009D010342168CE
:10768000002907D008682060496828468847F6E73F
:107690000834F4E770BD0000B8240020054A012139
:1076A00020B1012805D19170FFF7E4BF517000208F
:1076B000FAE77047B82400202DE9F05F26484168BA
:1076C000F1B3DFF898B00E688146DBF800408768B8
:1076D0008078E11B21F07F45ED1CB0B9DFF8808098
:1076E0004FF48030C8F84403C8F804031120FEF7B3
:1076F00035FF1120FEF73DFF4FF0010AC8F800A04A
:107700002F2000F0BBFF89F802A0B54200D2354619
:10771000124BE8193C3320F07F401860DBF8001072
:107720005A46091B21F07F41001B20F07F40C91CF5
:1077300081420FD9106818602F2000F09FFF00E0F1
:1077400004E0BDE8F05F1120FEF71EBFBDE8F05F6A
:1077500001F086BABDE8F09F4023002004150140E7
:107760000010014073B58CB00646002000900D98C3
:1077700080B100246D4621460DA800F05BFB30B1BE
:10778000009805EB400084800098401C0090641C29
:10779000142CF0D32C2269463046FEF7CEFD0EB0F5
:1077A00070BD2DE9F04117880646B81D14460D46F8
:1077B000984202D90C20BDE8F081318807220629C1
:1077C0000AD34FF4486C4FF6FF73614501D99942D3
:1077D00002D17088062801D21046ECE7604501D935
:1077E0009842F9D1994203D0984201D08142F3D80E
:1077F0000520E85520881221401C80B220802954A1
:107800002088401C80B220804119308801F070FC33
:107810002188084480B220804119708801F068FCFA
:107820002188084420800020C5E7FFF7CDB900007B
:1078300038B54A7A0F4B62B100220A7259690029A1
:1078400006D001228DF80020ADF802006846884776
:1078500038BD0A7A62B19B684C68024619462046D8
:10786000FFF7FAF90028F3D0BDE8384001F088BAF4
:107870005B68F1E7242400201FB500220092ADF8D8
:1078800000100192ADF802100292039202AA69461A
:1078900090DF04B010BD00002DE9F0470025DFF8AF
:1078A0008C803CE06068002100EBC5060120327846
:1078B0009146FEF733FDD4E9062300EA020701EA08
:1078C000030C57EA0C0728D082438B434846C4E98F
:1078D000062300F0B5FF3278824691460120002150
:1078E000FEF71CFDD4E9042300EA020401EA0307C1
:1078F0004A4650460021FEF711FD44404F403C43AC
:107900000BD17078012801D0012100E000217268BC
:1079100081EA0A010AB1484690476D1CEDB298F819
:10792000000044468542BDD3BDE8F08720230020F7
:107930000E4910B50A784C780023A24212D0521C8E
:10794000D2B20A70022A00D10B70084A0B780C32AE
:1079500052F8232002608868104420F07F4088603D
:10796000012010BD0360002010BD00004023002056
:107970002DE9F0418046024601200021FEF7CEFCB1
:107980001A4F05460E467868FFF7AAF900280CD171
:10799000174CD4E9062110462A4001EA06031A438F
:1079A00005D0A843B143C4E90601BDE8F0814046D3
:1079B00000F046FF30B1D4E9040128433143C4E963
:1079C000040105E0D4E90410A943B043C4E904105C
:1079D000D4E9060128433143C4E90601A168786867
:1079E000BDE8F0410022FFF737B90000F89202002D
:1079F000202300200146034802888A4200D000204C
:107A00007047000010240020F0B58488A518944227
:107A100000D82246A41AC288D6189A4200D8134623
:107A2000D21A4B880788BB420CD34088834209D8BE
:107A30008888A04206D3A84204D8C888904201D3BF
:107A4000B04201D90020F0BD0120F0BD4FF002008E
:107A50000AB1FFF7E9BCFFF7DFBC172101804180C5
:107A60000021017141711B218171C17170470000BA
:107A70002DE9F047394E002780463D46DFF8E0907B
:107A8000D6F804A057E003D00446D0F81C8035E0B7
:107A900099F8002002EB4201521CD2B289F8002072
:107AA00009EBC10199F80230091D9A4201D189F808
:107AB000005048680A780446012A12D0022A02D0EF
:107AC000032A3BD108E001F085FA00B101272574B3
:107AD00034E00574C06900E070680028F9D1706076
:107AE0002CE0207C50BB88686060C868A060086992
:107AF000E0604869A061F07800B165606268B168D3
:107B0000184B501A20F07F40984202D2A1680844D6
:107B100006E0881AA16820F07F40814202D9081A45
:107B2000206000E0256065600120A560207420468B
:107B3000E56101F031FAB8F10000A4D199F8001024
:107B400099F801008142A3D117B97168514502D05B
:107B50000120BDE8F0870020FBE700004023002063
:107B600094250020FFFF7F0088B00120FFF72AFC4A
:107B7000FFF748F808B1FFF727F840F266620121E5
:107B80005A48FEF7CDFF08B1FFF71EF800F0B8FB2A
:107B900008B1FFF719F800F095FC08B1FFF714F8E9
:107BA000002469460120009400F010FC08B1FFF7A2
:107BB0000BF8684600F04EFC08B1FFF705F89DF899
:107BC00008004BA120F00F00401C20F0F000103006
:107BD0008DF80800052202A87CDF08B1FEF7F4FF4B
:107BE00000940620ADF800000194ADF80200ADF855
:107BF00004404FF4C870ADF8060068467ADF08B15B
:107C0000FEF7E2FF00213C4800F047F908B1FEF71B
:107C1000DBFF01F045F839490325394AD1E9040170
:107C2000CDE9000135488DF802506946083000F072
:107C300091FF08B1FEF7C8FF324801A9CDE9004025
:107C40002D48143000F0FFF908B1FEF7BDFF2E48B3
:107C50000090294869461838FFF718FB08B1FEF76D
:107C6000B3FFFEF7D1FE1C216846FEF77FFB4FF401
:107C70002030CDE900404FF4702002902348059059
:107C800023488DF80C500690ADF80E408DF810404A
:107C90006846FFF735F908B1FEF796FFFEF706FFD5
:107CA000124D0C3D6978A878014214D01348083071
:107CB0000068D0F810054FF4FA42C240012000904D
:107CC0000E4804230221083000F02EFF0B48083034
:107CD00000F01CFF05E0884304D00848083000F09D
:107CE00007FFAC7000F020FBDCE70000EC22002076
:107CF00045434733300000007C2300208892020077
:107D00000D8F02006D8302004D7A0200158C020077
:107D10002B78020070B5144682880E4605462088EE
:107D2000111D0144921C994201D8FE2A01D90C2050
:107D300070BD521C32542088FF21401C80B220802C
:107D400031542088401C80B220808119288801F09D
:107D5000CFF92188084480B22080AA8842B1A9685E
:107D600041B13044FEF7E9FA2088A9880844208010
:107D7000002070BD072070BDF8B50F46017814468D
:107D80000546012901D1687830B12088821C9A42C9
:107D900032D8012902D006E00720F8BD69780144F5
:107DA000891C994228D8181A801E86B2ADF8006046
:107DB0002188B81C084469467DDF0028EDD1297868
:107DC000022904D06878BDF80020904205D3BDF8A0
:107DD0000000B04201D809200AE00820012905D19D
:107DE0006978B14202D8ADF8001001E0ADF800604A
:107DF000BDF80010FE2901D90C20F8BD2288491CCD
:107E0000B9542188491C89B2218078542088401CAB
:107E10002080BDF80010084420800020F8BD01F04B
:107E20001F0301229A40D243490900EB8100114609
:107E300000F015B84A0950F8220001F01F02012194
:107E40009140084000D00120704701F01F0301223B
:107E50009A40490900EB8100114600F006B808B5C8
:107E60006A46FEF7F0F9009808BD08B56A46FEF7C5
:107E7000DDF9009808BDC20800F007030120895C05
:107E800098400840704710B5C20800F00703885CAE
:107E900001249C402043885410BD10B560B101619D
:107EA000172120F8021B20F8021B1B2100F8021BDF
:107EB000FFF7D3FD002010BD0E2010BD2DE9F047C7
:107EC000B0F804A08EB00C465FEA0A0957D10188C9
:107ED000564E0127002524297BD006DC102909D025
:107EE000112929D0232926D199E03A2928D05529CA
:107EF00021D147E021792173C07BA61D012802D042
:107F0000022804D101E0208800E0608830803188B8
:107F10007088814208D94846A5DF10B1112802D0E7
:107F200002E0777100E03771B179F07981426BD965
:107F30004846FFF7A1FC67E0A01DFFF78EFD63E058
:107F40002246408934F8061F814200D808466080E6
:107F5000172800D217206080106970B1607960B175
:107F6000D6E90001CDE90001ADF802906088ADF8D6
:107F700004001369694610469847657125710EB073
:107F8000BDE8F087C08804F10608172800D2172042
:107F9000B8F80010814200D80846A8F8020088F816
:107FA00004502846B8F80010B5DF98F8050058BB13
:107FB000206948B3D6E90201CDE90001ADF802908D
:107FC000B8F80200ADF804002046694622691AE0BC
:107FD000FFE7011D2C226846FEF7AFF9BDF800004F
:107FE000BDF8042004EBC0014A73226962B1D6E9EE
:107FF0000423CDE90B23ADF82E00487B8DF830002B
:10800000226920460BA99047A07A0028B7D0E188C2
:108010005046A5DF0028B2D1A572E772AFE7017A1A
:10802000207B884284D2014682E70000B49202009D
:1080300020B10278DE2A03D0082070470E20704756
:1080400041800020704760B159B10278DE2A0AD021
:1080500009684160DE2101704FF6FF714180002008
:1080600070470E207047082070477FB505460029ED
:108070004DD0002D4BD008780C46DE2847D1A8887B
:108080006188884202D1204601F06CF828880128D6
:1080900025D002283BD011283AD0512837D135F8C5
:1080A000040F6188884232D1A978A81C02292ED1F8
:1080B000017A042903D0062901D0052927D10021FE
:1080C000009102228DF8002001914FF4C0720291BC
:1080D0000391ADF80420007A05280FD010E0297A2A
:1080E0002046012913D1A988428891420FD101214C
:1080F000017204B0BDE8704001F034B8ADF804106E
:1081000028886946B0DF002801D0616888477FBDB4
:10811000A88861888842FAD14FF6FF7060807FBDE1
:1081200000F180400068002800D00120704708B5A9
:1081300000F18040002101600068009008BD00004F
:1081400070B50B4C207808B185250FE00020A060A9
:1081500060602061E060074800F06AFA054600F0C0
:10816000FDF908B900F04CFA01202070284670BDD6
:10817000B82400209D76020038B500258DF8005007
:108180006846FEF7BDFD074CE068401EE060E06811
:1081900010B900F05DFAA5709DF80000FEF7D4FD5F
:1081A00038BD0000B82400202DE9FF411C46DDE960
:1081B0000A7815460E46684600F040F846EA450142
:1081C00041EA840141EA072242EA0841009A00EBB1
:1081D0008200C0F80017BDE8FF812DE9FF411C4671
:1081E000DDE90A7815460E46684600F035F846EA9D
:1081F000450141EA840141EA072242EA0841009A26
:1082000000EB8200C0F80017BDE8FF8113B50C46F3
:10821000684600F021F8009900EB8101D1F80027B1
:1082200022F44032C1F80027009900EB8100D0F819
:10823000001741EA0441C0F800171CBD016820295D
:1082400002D24FF0A040704701F01F0101600148C9
:1082500070470000000300500168202902D24FF04F
:10826000A040704701F01F01016001487047000005
:108270000003005001B56846FFF7EEFFD0F8100587
:108280000099C84000F0010008BD38B501240090F5
:10829000684631B1FFF7D2FF00998C40C0F808451D
:1082A00038BDFFF7CBFF00998C40C0F80C4538BDB6
:1082B0001CB5094C0144D4E90034CDE900346C46C6
:1082C00006E000BF54F82030D3F81035401C08C237
:1082D0008142F7D81CBD0000DC920200034908B5BA
:1082E0000844002101600068009008BD0060004063
:1082F00002494058012800D000207047006000402B
:10830000064910B500204870091D0860BFF35F8F53
:108310000349044800F046F9002010BD5423002012
:1083200020930200AC26002008B500208DF8000044
:108330006846FEF7E5FCF1EE100A20F09F00E1EE42
:10834000100ABFF35F8F08494020C1F880029DF8F2
:108350000000FEF7F9FC00F001F908B141DF08BDAB
:1083600020BF40BF20BF08BD04E000E0FEF72CBCEA
:10837000024A1060101D0160704700002C7600401A
:10838000030103481844C0F81425C0F810157047BD
:108390000070004002494058002800D0012070477A
:1083A00000700040034908B50844002202600068DC
:1083B000009008BD0070004020B1034909680160C9
:1083C000002070470E207047A4930200FEB50246BD
:1083D0000D460846FFF7F0FF002839D1002400942D
:1083E0000194012606208DF80020ADF804000294C7
:1083F0008DF80260694620202A6869DF00948DF8B4
:1084000001608DF80240019402948DF803406946A2
:1084100040202A6869DF00940A208DF8000001944A
:108420000294694601202A6869DF4FF4B060009029
:10843000019402946946A1202A6869DF009401949E
:1084400002948DF800406946A0202A6869DF002068
:10845000FEBD000060DF002802D1024A0121117038
:10846000704700005F23002030B5144891B00078B9
:10847000002820D05FF03405ADF8405010A903A8C3
:1084800061DF30B1052816D011B0BDE83040FEF7ED
:108490009BBB03AC0A49684600F084F807E000BFC4
:1084A000D0E9002120469047684600F092F80298F3
:1084B0000028E1D0F4E711B030BD00005F230020B8
:1084C000A89302007CB5194C207808B108207CBD27
:1084D0000120A070002000F025FC112819D00020F8
:1084E00000F038FC12480026006801908DF800600A
:1084F0006846FEF705FC0F4901A810DF05000AD009
:10850000002020709DF80000FEF71EFC2DB12846CB
:108510007CBD00207CBD0120F3E7A670667000F0F2
:108520009FFC012000F016FCF3E700005C23002014
:108530003C930200996B02000EB50749684600F0B3
:1085400031F805E0D0E900108847684600F041F8AE
:1085500002980028F6D10EBD589302000148007819
:10856000704700005C2300201FB568464BDF30B128
:10857000052814D004B0BDE81040FEF725BB08491B
:1085800001A800F00FF806E0D0E90021009890471C
:1085900001A800F01EF803980028E6D0F4E71FBDFC
:1085A000C4930200016009684160AFF3008010B518
:1085B000D0E900215368994201D1002104E0D1E9BA
:1085C0000034A34202D01946816010BD08314160D9
:1085D000F0E7816800290BD0026892680A44826043
:1085E00041684B689A4203D108314160FFF7DFBF11
:1085F000704708B5002242504058009008BD000066
:1086000009480068012110F0010F08D14FF0E02067
:10861000C02280F80024C0F88012C0F8001103497D
:10862000012008607047000000E100E018050040EC
:108630000649024600200B790BB1852070470A607D
:1086400001220A7100224A71704700000C230020A9
:1086500004490120086004480168C1F30041002971
:10866000FAD170470C00004018040040002802D0E6
:108670000149800108477047F1920200002802D0AA
:1086800001498001084770470193020010B5044674
:1086900000F0CEFA28B12046BDE810400021FFF7D7
:1086A000B5BD204600F0D0FA00280FD02046FEF7D6
:1086B00011FF074A02EB8001D1F8103523F00103C6
:1086C000C1F8103501218140C2F8081310BD000027
:1086D000006000402DE9F0410E46804600F0A8FA07
:1086E000204D0028404616D0FEF7F4FE284490F8AE
:1086F00058008009032802D001280AD003E0404630
:10870000FFF7B8FD28B103214046BDE8F041FFF76F
:108710007DBD0221F8E700F097FA002820D04046FE
:10872000FEF7D8FE0446104F4FF4807007EB84012B
:1087300000EB8400D1F8102580B242F00102C1F8AC
:108740001025FFF7CBFD002E0AD04046FEF7C2FEF3
:1087500055F82000002803D00120A040C7F80403EA
:10876000BDE8F081CC240020006000402DE9FC41F0
:10877000DFF8C080044608EB0400002790F93000C1
:108780001346C0170E46401C01D008274FE0B078B2
:108790001946C0F340022046FEF778FE0546401C0D
:1087A00044D0B07841071CD4C0070DD0684600946F
:1087B000FFF752FD009900EB8100D0F8001721F07F
:1087C0000201C0F8001707E00021737820460091ED
:1087D0000A460191FFF701FD164920466431FFF773
:1087E00052FBB078800718D51348317800EB85002C
:1087F000D0F81025114B1A40C0F810254FF47C52C8
:108800004FF4403302EA042203EA01410A43D0F85C
:1088100010150A43C0F8102509E008EB050032786E
:1088200010F8581F41EA8211017000E00427384611
:10883000BDE8FC81CC24002000600040FFC0FCFFAC
:1088400010B5FFF717FD002800D0012010BD000073
:1088500070B5194D95F86A0008B1082070BD002068
:10886000411E2A18401CC0B282F830103028F8D3BC
:1088700000242046FEF7FCFD641CE4B20C2CF8D367
:108880000D490024C0204C66A1F868400B4981F8CE
:10889000000401264020891FC1F88002C1F80001B0
:1088A0004FF4BE70FFF71AFD0549F007C1F8040345
:1088B00085F86A60204670BDCC24002006E000E008
:1088C00000600040034890F86A00002800D00120B2
:1088D00070470000CC240020204A10B5137C0BB157
:1088E000112010BD02EB40031C7F1CB912F82D4F64
:1088F000641C1470CA791A770A7A5A770A784B7806
:10890000302402F0030204EA03131A438B784FF475
:10891000E06404EA03231A43CB784FF4805404EA5A
:1089200003331A430B794FF4E02404EA03431A4358
:108930004B794FF4801404EA03531A438B792401D2
:1089400004EA0363064C1A4304EB0013C3F818252A
:108950000A7AC979FFF714FD002010BD38250020E0
:10896000007000402DE9F0411E4C054694F82C00A3
:1089700010B10820BDE8F08144F8101B1A4928788E
:108980000860091D68780860E878A07701272777D4
:108990000020207060776060144EE0776FF0004038
:1089A000C6F808034FF48270FFF7FCFCB015FFF720
:1089B000F9FCA8780E49400181F800048020C91F05
:1089C000C1F88002C1F800010220C6F80403A07FAC
:1089D00010B10120C6F804030348F03807600020F6
:1089E000C8E7000038250020F07500400070004006
:1089F00007E000E02DE9F0412C4D80460B46287C35
:108A000010B11120BDE8F08101242C74284E0322FE
:108A1000C6F8082321461846FFF7AAFC95F82D0052
:108A2000012808D900270022F8B21146FFF7A8FC58
:108A30007F1C082FF7D305EB4800427F017F40469B
:108A4000FFF79EFC002734601948001D046042F2C5
:108A500010744FF482784046FFF79CFC20B9002048
:108A6000FFF704FE641EF6D14FF48070FFF79AFC06
:108A70004046FFF797FC95F82D0001280AD90024FD
:108A800005EB4400427F017FE0B2FFF779FC641CF4
:108A9000082CF5D395F82E0008B1032000E0022041
:108AA000C6F8040338462F74ACE7000038250020D0
:108AB000007000402DE9F04106460D464FF4803429
:108AC00000681746AC404BB14FF4A07101EB850133
:108AD000FFF78FFD3068C0F8044301E0C0F8084399
:108AE000306800EB8500C0F84075BDE8F0810000FB
:108AF0000268012111610079034A00EB400002EB9A
:108B00008000017270470000682500200168012282
:108B10000A600079034A00EB400002EB800002216A
:108B20000172704768250020F0B40468049E40F28A
:108B30000115D4F800728D40AF43C4F80072046888
:108B4000D4F800521D43C4F800523346F0BCFFF77E
:108B5000B1BF00002DE9F04104460E4600792C49D2
:108B600000EB400001EB8007387A10B10820BDE827
:108B7000F0813A60706800254FF4A078786006E0D4
:108B800008EB85012068FFF734FD6D1CEDB26079BC
:108B9000A842F5D82068F17840F3073000284FEA62
:108BA000411106DA00F00F0000F1E02080F8141DFA
:108BB00003E000F1E02080F800142068012240F377
:108BC000073000F01F0302FA03F14009800000F1B2
:108BD000E020C0F88012C0F8001120687178D0F849
:108BE000043561F30103C0F804352068B178D0F88A
:108BF000083561F30103C0F8083520683178D0F8F2
:108C0000103561F30303C0F810353A720020AEE767
:108C1000682500200078002807D104483B2180887F
:108C200076DF002801D0FDF7CFBF7047E02200209B
:108C30000449084490F93000082801DB01207047FE
:108C400000207047CC2400200449084490F93000EB
:108C5000082801D20120704700207047CC24002052
:108C600070B5012670044FF0E0210025C1F88001A5
:108C7000084C4010C4F84803C4F8080366602F206D
:108C8000FFF7FCFCA660044C2F20A560FFF7F6FC64
:108C9000A57070BD00100140402300207047000007
:108CA0000EB50A4A07CA8DE807000848084918386F
:108CB000FFF758FE08B1FDF787FF69460020FFF770
:108CC0000BFE002801D0FDF77FFF0EBDA092020031
:108CD0009D8C020038B50021012548B101280CD037
:108CE000032809D1FFF78CFCBDE83840FFF744BAF0
:108CF0004FF0E020C0F8805138BD8DF80010684674
:108D0000FDF7FEFF064C207808B9FFF719FAE06876
:108D1000401CE060A5709DF80000FEF715F838BD16
:108D2000B82400203EB5044609496846FFF73AFCDE
:108D300008E000BFD0E900212046904730B16846E6
:108D4000FFF747FC02980028F4D13EBD11203EBD3C
:108D5000409302003EB5044608496846FFF722FCEE
:108D600007E000BFD0E90021204690476846FFF7A2
:108D700030FC02980028F5D13EBD00004C93020063
:108D800002498969002900D008477047242400203F
:108D90002DE9F0410746806A14468846C8B300258D
:108DA00031E000BFB96A05EB450001EB8006B088F1
:108DB000801CFE2802D90C20BDE8F0812288401CCE
:108DC00008F8020020881622401C80B2208008F893
:108DD00000202088401C80B2208000EB08013088F1
:108DE00000F086F92188084480B22080B28842B120
:108DF000B16871B14044FDF7A0FA2088B1880844F9
:108E000020806D1CEDB297F82C00A842CAD8002033
:108E1000D2E7FFE70720CFE70A78062822F0FF0213
:108E20000A7010D2DFE800F0030507090B0D0020DF
:108E300008E0112006E0212004E0312002E01220A9
:108E400000E0222008707047002805D10349012066
:108E500048700020FEF70EBC70470000B8240020C8
:108E600010B51620FDF7BEFDA0B1114890F8000422
:108E70004009082811D20121814011F0EC0F0CD0DB
:108E80000C4882684FF480016AB1016841F48001A6
:108E9000016010BD42F2010001E042F20200BDE8B3
:108EA0001040FDF791BE4FF0E020C0F8001110BD5A
:108EB00016E000E0A026002038B50025ADF80050EF
:108EC00069462846FFF796FD0E4CA0680A280CDA82
:108ED000BDF800100C4A0B0A02F8103002EB4002F9
:108EE000401C5170A0600A280ADBA088A0F57F41D1
:108EF000FF3904D0044AA2F13801FEF742FAA56016
:108F000038BD0000E02200209C230020B0F5A47FA3
:108F100001D1FFF7D1BF70472DE9F84F1D4C002557
:108F20006846D4E901A6FEF703FD002738B3002305
:108F3000009A61681CE0D1F800C00846944503D946
:108F4000ACEB02020A6015E0A2EB0C02634407607E
:108F5000D0F80CC0C1698146BCF1000F08D006EB07
:108F6000030828F07F48C0E9018CC9F81C50054669
:108F70000029E0D128466160FEF77AFD03E028462B
:108F8000FEF776FD10B15046FEF796FBE770BDE8A0
:108F9000F88F0000402300200D4B10B5596831B107
:108FA00002680C68A24204D8A21A0A60C161586023
:108FB00010BD0B4603E00B46C969121B21B10C68BA
:108FC0009442F8D3A41A0C600260C161D86110BD4C
:108FD000402300202DE9F041144E77683D462C4691
:108FE00003E0844204D02546E469002CF9D11BE05B
:108FF000D4B1A5420BD1F869706040B90C49012089
:1090000088600021B160F0702F20FFF737FB2168E6
:10901000E069E86110B1026811440160706887423C
:1090200002D00120BDE8F0810020FBE740230020B2
:10903000001001407CB5064600240D468DF8004026
:109040006846FDF75DFE01A800F09EF870B105705E
:10905000094946609DF8040048709DF80000FDF73E
:1090600073FE1420FDF790FA20467CBD04249DF881
:109070000000FDF769FEF7E7942500202DE9F04197
:10908000194D6C68002C2CD0184800270068A9687E
:10909000B846401A20F07F462068B0420CD82146DE
:1090A000361A0744E469087C20B181F81080886989
:1090B00049698847002CEFD129786878814206D128
:1090C000401CC0B26870022801D185F801800648B2
:1090D00069780C3040F82170BDE8F0411420FDF7AC
:1090E00053BABDE8F0810000402300200415014080
:1090F0000870000A4870022070470000F8B5054665
:1091000080B2FEF777FC040013D0154E207A0027BA
:10911000317B88420ED2A8B204F10A0175DF28B172
:10912000112806D0BDE8F840FFF72ABE207A401C7F
:109130002072F8BD2772307C38B1A8B23B2176DFAF
:1091400018B1082801D0FFF71BFE71690029F0D083
:109150008DF80070ADF8025068468847F8BD0000F1
:109160002424002030B40446007A00280AD0608805
:10917000002166DF28B1112802D0616830BC0847A1
:109180000120207230BC70470A494A788B78521C03
:10919000D2B2934200D100220B78934201D1002039
:1091A00070470270487800EB400001EBC000001DE2
:1091B00070470000942500202DE9FC411646DDE9AA
:1091C0000854CDE900541F468046022200F00CF8F6
:1091D000002807D1CDE900543B46102231464046D5
:1091E00000F002F8BDE8FC812DE9FC5F0026DDE916
:1091F0000C4B994692468E4680462788354630E08D
:10920000D8F80400002200EB850069460068019050
:1092100001A864DF002830D19DF8000050451FD11F
:109220000EB1002100E0022122880844111859459E
:1092300022D846B9521C90B2208009F800E020885C
:10924000401C20800126218801A801EB0902694603
:1092500064DF002811D120889DF800100844208088
:109260006D1CB8F80000A842CADC56B12088C01BAB
:10927000401E80B2FF2802D90C20BDE8FC9F09F8EF
:1092800007000020F9E70000020006002315000097
:1092900000A00040000400000000000600000000E4
:1092A0000000000002000004000D0E0F100B0C184F
:1092B00019000000770A000000000000770A000093
:1092C000000000007ADA00000000000023D1BCEAB0
:1092D0005F782315DEEF121200000000000000503E
:1092E000000300500000000000000000000000002B
:1092F0000338FDD8704700000300000074250020EB
:109300000338FDD870470000000000000000000096
:10931000000000000000000000000000000000004D
:1093200008930200209302000400000000000000E7
:109330000000000000000000000000000100000725
:109340002C9302003C93020008000000649302008A
:1093500074930200080000007493020084930200DA
:109360000800000038940200409402000000000051
:109370000000000028940200389402000000000061
:1093800000000000F0930200F8930200F89302003E
:109390000894020008940200189402001894020035
:1093A00020940200E022002084930200A493020093
:1093B0000800000020940200289402000000000031
:1093C00000000000B4930200C493020008000000F3
:1093D00040940200E022002084000000C4690200E2
:1093E000C49402006423002054230000D4690200C6
:1093F0008971020000000000BD7E02007C23002075
:109400008D700200000000005573020064230020EC
:109410006B80020090230020C96F02000000000052
:10942000498E020000000000698402000000000074
:109430006985020000000000D58C020000000000D9
:10944000FF000000FFFF0000000000000B00030011
:109450004B740200B02300201F000000CF23002027
:109460001F000000000000000000000000000000DD
:1094700000000000000000000000000000000000EC
:1094800000000000000000000000000000000000DC
:1094900000000000000000000000000000000000CC
:1094A00000000000000000000000000000000000BC
:1094B00000000000000000000000000000000000AC
:0494C0000090D00345
:040000050002620192
:00000001FF
